:020000040000FA
:0600000014EF12F01200E3
:020006001200E6
:060008002DEF06F01200CE
:02000E001200DE
:02001000FEFFF1
:06001800A9EF06F0120042
:02001E000200DE
:1000200071240000CF0000001E000000100000003E
:08003000F700000002000000CF
:0800380058EC05F0FB0EDBCFD4
:10004000F3FFDB06F35000090AE0A6EC05F0FA0E18
:1000500011EC06F0F3E11F1CF1E1010E01D0000EDE
:1000600087EF05F058EC05F03B0EE12402E3E16870
:10007000E652E16E010EDB6A020EDB6AF90EDBCF9F
:10008000F6FFFA0EDBCFF7FFFB0EDBCFF8FF080021
:10009000F550DF6EDF5002E1ABEF04F0250EDF5CC0
:1000A00002E09EEF04F0030EDB6A040EDB6A050E2D
:1000B000DB6A060EDB6A070EDB6AC0EC04F02D0E6D
:1000C000DF5C0CE02B0EDF5C09E0200EDF5C06E05D
:1000D000230EDF5C03E0300EDF5C1AE1DF50300AF4
:1000E00014E0130A0FE0030A0AE00B0A05E0060A0F
:1000F000E4E1030EDB80E1D7030EDB82DED7030EE3
:10010000DB84DBD7030EDB86D8D7030EDB88D5D79D
:100110002A0EDF5C1BE1BCEC04F00AEC05F010E0F9
:10012000030EDB8008680968130EDBCF0DF0140E98
:10013000DBCF0EF024EC0FF0040E06C0DBFF03D083
:10014000130EF3EC04F0C0EC04F00BD0090EDB6AE4
:1001500061EC05F003E0D5EC05F0FAD7090EF3ECFD
:1001600004F0030EDBB0DB982E0EDF5C1BE1C0EC6D
:1001700004F02A0EDF5C0BE1BCEC04F00AEC05F0A5
:1001800003E1130E45EC05F0C0EC04F00BD0090EB2
:10019000DB6A61EC05F003E0D5EC05F0FAD7090E57
:1001A00045EC05F0680EDF5C07E1C0EC04F0680E7A
:1001B000DF5C1DE1030E18D0740EDF5C17E07A0ED1
:1001C000DF5C14E0480EDF5C06E0540EDF5C03E009
:1001D0005A0EDF5C02E1020E07D06C0EDF5C03E01A
:1001E0006A0EDF5C04E1010E98EC05F0C9DBDF501C
:1001F0006E0A01E17FD31E0A01E192D1200A01E1DA
:100200008FD13F0A01E149D11A0A01E146D10D0A15
:1002100001E143D1200A01E140D13A0A01E13DD197
:10022000200A01E13AD1260A01E135D10D0A01E1A6
:1002300032D11A0A01E1D9D0200A4AE0300A1FE07F
:10024000460A0EE0250A01E083D3D950F90FE96E82
:10025000FF0EDA20EA6E010EEE5E000EEE5AEE5A46
:10026000A6EC05F0250EE66E95DB03E11F1C01E10F
:1002700069D3A2EC05F001E26BD3DB2A69D3080E47
:10028000DB6A040EDB50010806E2040EDB046AECB4
:1002900005F0DB508BDB080EDB5009E0030EDB5072
:1002A000010B05E172DB01E04DD3080EDB6A64DB74
:1002B000EFCFDFFF1AEC06F003E11F1C01E142D390
:1002C000A2EC05F001E3DB2A60DB01E141D33AD384
:1002D000070EDB5002080FE1E6EC05F0030EADEC73
:1002E00005F00E0EEECFDBFF0F0EEECFDBFF100E94
:1002F000EECFDBFF20D0F70EDBCF21F0F80EDBCF07
:1003000022F0020E215E000E225AF70E21C0DBFF02
:10031000F80E22C0DBFF21C0E9FF22C0EAFF9DECFE
:1003200005F0206A0E0E1EC0DBFF0F0E1FC0DBFFA4
:10033000100E20C0DBFF0E0EDBCFE6FF0F0EDBCF73
:10034000E6FF100EDBCFE6FF49EC11F0E552E55277
:10035000E552130E07C0DBFF140E08C0DBFF060ECC
:10036000DB5005E0130EE1EC05F001E26ADB05EC81
:1003700006F002E2130E37DBC8EC05F006E0040ECF
:10038000E1EC05F002E2050E2EDB030EDBB005D03A
:10039000FCDA01E0D7D2080EDB6A090EDB6A0E0E2A
:1003A000DBCFF6FF0F0EDBCFF7FF100EDBCFF8FF32
:1003B0000800F550DF6EDF5014E00BEC06F011E2A0
:1003C0001AEC06F003E11F1C01E1BCD2BBDB01E328
:1003D000DB2A090EDB2AD9500E0FE96E000ECBDBAB
:1003E000E7D7D3DA01E1B4D2ADD2C6DA110EEECF3F
:1003F000DBFF120EEDCFDBFF110EDBCFE6FF120E9F
:10040000DBCFE6FF3BEC11F0E552E552130EF3CFE4
:10041000DBFF140EF4CFDBFF060EDB5004E0130EFF
:10042000D0DB01E20EDB05EC06F002E2130EDBDAB4
:10043000AFDB05E0040EC5DB02E2050ED4DA030EE5
:10044000DBB005D0A2DA01E07DD2080EDB6A090E2E
:10045000DB6A110EDBCFE9FF120EDBCFEAFFEFCF35
:10046000DFFFDF5014E0D7DB12E2E4DB03E11F1C07
:1004700001E168D267DB01E3DB2A090EDB2A110EFA
:10048000DB2ADBCFE9FF120EE8E3DB2AE6D77DDAD1
:1004900001E15ED257D2030EDB8E070EDB0410E1C2
:1004A00095DB040E5ADB0A0EEECFDBFF0B0EEECF10
:1004B000DBFF0C0EEECFDBFF0D0EEECFDBFF6CD0C3
:1004C000070EDB5003082CE1030EDBAE0DD0B2DAD1
:1004D000020E76DAEFCF1EF01F6A206A216A1EAE86
:1004E00039D01F68206835D0F70EDBCF1FF0F80E2B
:1004F000DBCF20F0020E1F5E000E205AF70E1FC049
:10050000DBFFF80E20C0DBFF1FC0E9FF20C0EAFFC1
:10051000EFCF1EF00A0E1EC0DBFF0B0EDB6A38D0D9
:10052000070EDB50020809E1030EDBAE04D059DBF5
:1005300020AE10D00ED055DB0DD0030EDBAE12D0A6
:1005400079DA020E3DDAF9DA206A216A1FAE02D0AA
:1005500020682168E2DA0C0E20C0DBFF0D0E21C0FE
:10056000DBFF1AD0F70EDBCF20F0F80EDBCF21F047
:10057000020E205E000E215AF70E20C0DBFFF80E9F
:1005800021C0DBFF20C0E9FF21C0EAFFD6DAC5DACF
:100590000C0EDB6A0D0EDB6A060EDB5005E1010E68
:1005A000F36E050EF3CFDBFF150EDB6A160EDB6A6A
:1005B000D950370F1E6E000EDA201F6E390E1EC086
:1005C000DBFF3A0E1FC0DBFF380EDB6A080EDB6A6A
:1005D0000A0EAEDADF50780A12E0200A10E0280A8C
:1005E0000CE0200A0AE03F0A06E00D0A02E0200AB9
:1005F00008E1020E05D0080E03D0080EDF26100E0B
:1006000097DA030EDBBE02D0DB92DB94DB50800B6B
:1006100024E08ADAD890030EEB50000A08E6000EB8
:10062000EE5C000EEE58000EEE58000EEE5815E28D
:1006300013DA0B680C680D680E6803EC11F00A0EF3
:1006400002C0DBFF0B0E03C0DBFF0C0E04C0DBFFA0
:100650000D0E05C0DBFF2D0E08D0030EDBA202D06D
:100660002B0E03D0DBA408D0200EF36E170EF3CFB1
:10067000DBFF150EDB2A02D0170EDB6A050EDB50FE
:1006800003E1B7D901E189D0600E1E6E240E1F6E02
:10069000000E206E070EDBCF21F0226A236A246A47
:1006A00021C00BF022C00CF023C00DF024C00EF0CE
:1006B000D3D9A1EC11F01E500224F36E1F50032079
:1006C000F46E20500420F86EF4CFF7FFF3CFF6FF5E
:1006D0000800090EF5CFDBFF580EDF5C0FE1610E5D
:1006E000F36E090E7BD90AE3200E1E6E090EDBCFD6
:1006F000E7FF1E50E75E090EE7CFDBFF070EDBCFFB
:100700001EF01F6A206A216A0FDA1EC00BF01FC09C
:100710000CF020C00DF021C00EF0EECF06F0EECFB1
:1007200007F0EECF08F0EFCF09F0A1EC11F009C00F
:10073000EDFF08C0EDFF07C0EDFF06C0EFFF390E6B
:10074000DBCFE9FFDB063A0EDBCFEAFF01E2DB0697
:10075000090EDBCFEFFF150EDB2A4BD995E1030E17
:10076000DBA61DD06F0EDF5C06E1C1D918E3150EC4
:10077000DB285BDA14D0780EDF5C09E0580EDF5C12
:1007800006E0620EDF5C03E0420EDF5C08E1020E71
:10079000F36E160EF3CFDBFF02D0150EDB6A030EED
:1007A000DB50100B0EE0040EDBCF1EF0050EDB500D
:1007B000D8801E5406E2060EDB5003E1040EDB5027
:1007C00034DA95D90AE2050EDBCFE7FF150EDB50D0
:1007D000E75E050EE7CFDBFF02D0050EDB6A040EF5
:1007E000DBCF1EF0160E45D9D8801E5414E2160E2B
:1007F000DBCFE6FF150EDBCFE6FF040EDBCFE6FF17
:10080000050EDB50E552E75CE552D880E754E5522F
:10081000D880E7545FD9030EDB50010B0BE1080EC3
:10082000DB5008E0B2D801E08DD0080EDB50BED816
:10083000080EDB6A170EDB5007E088D9170EF1D9D6
:1008400003E11F1C01E17ED0160EDB5016E07ED9BD
:10085000300EE66E9FD802E11F1C74E077D9DFCF1F
:10086000E6FFC1EC10F0E552E552E552F4CF1FF07F
:100870000001F31C02E11F1C65E0050EDBCF1EF03A
:10088000160EDB50D8801E5409E2050EDBCFE7FFC1
:10089000160EDB50E75E050EE7CFDBFF300EE66E8F
:1008A000050ECBD94FE1390EDB2ADBCFE9FF3A0E3B
:1008B00001E3DB2ADBCFEAFF090EEFCFDBFFDB50E2
:1008C0000EE044D9090EADD902E11F1C3BE0390E00
:1008D000DB2ADBCFE9FF3A0EEDE3DB2AEBD755D875
:1008E00031E1160EDBCFE6FF080EC3D8E552E72450
:1008F0005DD82ED0070EDB50030A1CE0010A14E07D
:10090000030A07E07BD9DBCFEEFF020EDBCFEDFF62
:100910001FD0F5D8236A21AE02D0226823682CD8D4
:10092000BCD823C0EEFF14D0EAD821BE226824D858
:10093000B4D80ED063D9DBCFEFFF0AD07BD905E165
:100940001F1C03E1F368F46810D0FCD801E3DB2A34
:1009500079D947EF00F0010EDBCF1EF0020EDBCF9E
:100960001FF01EC0F3FF1FC0F4FF3B0EE15C02E26C
:10097000E16AE552E16ECBD029D9020EADEF05F068
:1009800061D90800F550DF6E1200200EE66E080EE9
:100990001DEF06F0C1EC10F0E552E552E552F3CF41
:1009A0001EF0F4CF1FF00001F31C12001E6E1F6A30
:1009B000D950010F4DD91E50EE261F50ED221200C6
:1009C000225E000E235AF70E22C0DBFFF80E23C072
:1009D000DBFF22C0E9FF23C0EAFF1200DBCFF4FFF8
:1009E000F350F45C1200DB50E76E040EE7CFDBFF40
:1009F00012000A0EDBCF1EF00B0EDBCF1FF00C0E29
:100A0000DBCF20F00D0EDBCF21F01E501F10201089
:100A100021101200130EEECFDBFF140EEDCFDBFF23
:100A2000130EDBCF1EF0140EDBCF1FF00001800E83
:100A30001F141200F70EDBCF22F0F80EDBCF23F0ED
:100A40001200050EDB50E66ED950130F01D9E552A6
:100A5000E750EE6EED6A12000A0EDBCF06F00B0EC9
:100A6000DBCF07F00C0EDBCF08F00D0EDBCF09F06B
:100A70001200DBCFE6FF150EDBCFE6FF050EDB50E5
:100A8000E552E724E552E7241200DB50CED8010EF0
:100A9000F36E060EF3CFDBFF1200EE50EFCFEAFF4E
:100AA000E96E20C0EEFF21C0EEFF22C0EEFF120073
:100AB000D9CFE6FFDACFE6FFE1CFD9FFE2CFDAFF09
:100AC0001200DFCFE6FFE66AF2EC11F0E552E552E4
:100AD000F3501200E76E080EE7CFDBFF1200EECFF7
:100AE0001EF0EECF1FF0EFCF20F0216A1200050EAE
:100AF000DBCF1EF0150EDB50D8801E541200010E05
:100B0000DBCF20F0020EDBCF21F0226A1200E5528B
:100B1000E5CFDAFFE7CFD9FF12000A0E1EC0DBFFD8
:100B20000B0E1FC0DBFF1200D9500A0F28EF06F092
:100B3000F36E070EF3CFDBFF1200EECF1EF0EFCF08
:100B40001FF01200010EDB2A020E1200FC0EDBCF9A
:100B5000E6FFFD0EDBCFE6FF12001E5E000E1F5A01
:100B6000F70E1EC0DBFFF80E1FC0DBFF1EC0E9FF43
:100B70001FC0EAFF1200DA20EA6EEF2AEECFF6FF7E
:100B8000000EEF22EECFF7FFEF22EECFF8FF1200BC
:100B9000040EDBCFE6FF130EDB50E552E75C9ADF75
:100BA000DB5004DF060EDB501200090EDB500A0D8D
:100BB000F350DF24D00FE76E090EE7CFDBFFC0EF65
:100BC00004F0DB50F36E050EEEEF04F0F70EDBCF12
:100BD0001EF0F80EDBCF1FF01200DFCFE6FFCAEFEA
:100BE00004F028DF030EECDE6FEF05F01CEC00F0E4
:100BF000E552E552E552E55200091200BDDEEE5025
:100C0000EFCFEAFFE96E010E1200130EDB50F36E18
:100C1000040EEEEF04F0040EDB50F36E090EEEEF5F
:100C200004F0DBCFE6FFCAEF04F0E76E050EE7CF76
:100C3000DBFF12008BDFEDEF05F0DBCFE6FF86DF99
:100C4000F6EF05F0D950F90FE96EFF0EBBEF05F096
:0A0C5000E96E000EDA20EA6E1200D1
:060C5A00A0EC0AF000EE20
:100C600000F0140EE80403E3EECFE4FFFBD700EE40
:100C70001EF0070EE80403E3EECFE4FFFBD7EDEC34
:100C80000AF09EAA20D0A394A494F29AF2940001B0
:100C9000796B0D0EAE5C0CE0090E795D09E2F5ECA6
:100CA0000AF0AECFEFFF9EAAFED70001792BF1D755
:100CB000080E795D08E29E9AAB98010E786FF5EC0C
:100CC0000AF00D0EEF6EA4A427D000019F51A011D1
:100CD00003E1010E9F6FA06B9D519E110BE079EC1B
:100CE0000BF0D3C0E6FFD4C0E6FFDCEC0AF0000155
:100CF0009D6B9E6BF7EC0AF0286E276A010EDB50A5
:100D00002724256E000E2820266E040E25C0DBFF4A
:100D1000050E26C0DBFFA494120EE15C02E2E16A3C
:100D2000E552E16EE552E7CFD9FFE55200EE24F03F
:100D3000070EE80403E3E5CFEDFFFBD700EE13F069
:100D4000140EE80403E3E5CFEDFFFBD7B5EC0AF0A2
:100D50001100D8CFE4FFE0CFE4FFE46EA0EC0AF08E
:100D600000EE00F0140EE80403E3EECFE4FFFBD73F
:100D700000EE1EF0070EE80403E3EECFE4FFFBD71E
:100D8000EDEC0AF0F0A0E4D0F090F7EC0AF0176E6A
:100D9000166A010EDB5000011624146E000E172097
:100DA000156E040E14C0DBFF050E15C0DBFFB6ACDC
:100DB00002D0B69C03D0A3B4A394A384040EDB504A
:100DC0000001835D00011C6E050EDB50000184599B
:100DD00000011D6E1CC008F0096E0DEC0EF007C07E
:100DE00018F008C019F009C01AF00AC01BF007C0BB
:100DF000E6FF08C0E6FF09C0E6FF0AC0E6FF6EECAA
:100E000011F02DEC0BF006C014F007C015F008C06F
:100E100016F009C017F00C6A0D6A400E0E6E0F6EC8
:100E200006C007F015C008F016C009F017C00AF098
:100E300040EC0EF0010A07E179EC0BF00001A00E86
:100E4000836F0F0E846F0A0ECBCFDBFF0B0EDB6AB6
:100E50000C0EDB6A0D0EDB6AD9500A0FE96EDACF91
:100E6000EAFFCCDB1EEC0BF003EC11F005C0EDFF4C
:100E700004C0EDFF03C0EDFF02C0EFFF400EF36EB4
:100E80000E0EF3CFDBFF4B0EF36E0F0EF3CFDBFF37
:100E90004C0EF36E100EF3CFDBFF110EDB6AD95050
:100EA0000E0FE96EDACFEAFF0A0EDBCF0BF00B0E66
:100EB000DBCF0CF00C0EDBCF0DF00D0EDBCF0EF008
:100EC00067DBD9500E0FE96EDACFEAFFD880880EC3
:100ED000EE54130EEE54000EEE54000EEE5405E2E6
:100EE000080EDB6A090EDB6A0CD00E0EDBCF08F0B1
:100EF0000F0EDBCF09F0080E08C0DBFF090E09C09A
:100F0000DBFF0001010E851923E1865121E1010E6D
:100F1000A1191EE1A2511CE1080EDBCFE6FF090E6C
:100F2000DBCFE6FF040EDBCFE6FF050EDBCFE6FFEF
:100F3000A20E146E1E0E156E166A14C0E6FFE66E43
:100F400016C0E6FF75EC10F0176E070EE15E175045
:100F5000120EE15C02E2E16AE552E16EE552E7CF92
:100F6000D9FFE55200EE24F0070EE80403E3E5CFD5
:100F7000EDFFFBD700EE13F0140EE80403E3E5CF1A
:100F8000EDFFFBD7F2DAE550E5CFE0FFE5CFD8FF84
:100F90001000DAEC0BF00001876B886BA00E836FFA
:100FA0000F0E846F806B9F6BA06BBB6BBC6BBD6BBC
:100FB000BE6B010E856F866BB76BB86BB96BBA6B86
:100FC000C36BC46BC56BC66B7D6B7E6B7F6B786BC5
:100FD0007C6B796BA16BA26B816B826B800507E1E7
:100FE000DAEC0BF0D1C0E6FFD2C0E6FF06D0010E6E
:100FF000806FCFC0E6FFD0C0E6FFDEDA06DB00017F
:10100000F350F41003E0010EA16FA26B320EE66EF6
:10101000C5EC11F0E5528194320EE66EC5EC11F08C
:10102000E552818400017805F1E17A6BA96BAA6B26
:10103000A76BA86BA56BA66BA36BA46BAB6BAC6B20
:10104000AD6BAE6B816B826BEEDA0D0801E1B7D050
:10105000EADA730803E0E7DA53082FE1A551A61195
:101060002CE1936B946B7A2B010EA56FA66BFADAC9
:10107000E8AE02D0E73402D0E7501E5C0EE3F5DAAA
:10108000E8AE02D01F3403D0E750D8801F5405E3E8
:101090007A2B932B000E9423EAD77A07030ED8807D
:1010A0009355000E945501E283D0000ED8809355DD
:1010B000000E945501E280D07BD0B5DA6D0803E0D4
:1010C000B2DA4D0807E1AB51AC1104E1010EAB6F90
:1010D000AC6B72D0A8DA620803E0A5DA420803E13B
:1010E000AD51AE1109E09FDA660803E09CDA4608CC
:1010F00007E1AD51AE1104E1010EAD6FAE6B5CD0F6
:1011000092DA680803E08FDA480807E1A951AA11CA
:1011100004E1010EA96FAA6B4FD085DA760803E0CF
:1011200082DA560813E1A751A81110E1010EA719A0
:1011300001E1A85102E0000E01D0010E7A2B73DA12
:1011400031083AE070DA300837E032D06CDA7008F3
:1011500003E069DA50082CE1A351A41129E1976B4F
:10116000986B7A2B010EA36FA46B7CDAE8AE02D0E9
:10117000E73402D0E7501E5C0EE377DAE8AE02D027
:101180001F3403D0E750D8801F5405E37A2B972BE8
:10119000000E9823EAD77A07040ED8809755000EE0
:1011A000985506E3000ED8809755000E985504E335
:1011B000010E816F826B03D000017A2B45D7010E9F
:1011C000811911E182510FE17A6B79297A5D05E28B
:1011D000ABD9200EEF6E7A2BF8D7D7C0E6FFD8C078
:1011E000E6FFEAD99BD18151821101E097D1D5C0A8
:1011F000E6FFD6C0E6FFE0D900017A6B916B926BF7
:10120000956B966B79517A5D01E37FD12BDAE8AE6D
:1012100002D0E73402D0E7501E5C01E2F8D025DAB4
:10122000E8AE02D01F3403D0E750D8801F5401E24B
:10123000EED07D0501E08AD0F6D9E66E600E9125EC
:10124000E96E000E9221EA6EE552E750EF6E912BA7
:10125000000E92237D0501E0DAD09351911901E04F
:10126000D6D09451921901E0D2D091C0E6FF92C03D
:10127000E6FF9AD9F3CF8FF0F4CF90F00001960EED
:10128000D880F354000EF45440E3180ED8808F55E4
:10129000000E90553AE28FC0B3F090C0B4F0B56B39
:1012A000B66BACD98FC006F090C007F0B5C008F09F
:1012B000B6C009F003EC11F002C0B3F003C0B4F003
:1012C00004C0B5F005C0B6F00001400EAF6F4B0E84
:1012D000B06F4C0EB16FB26BAF0EE96E000EEA6EDE
:1012E00002C00BF003C00CF004C00DF005C00EF0FE
:1012F0004FD9CB50E66EE66AAFC0E6FFB0C0E6FF5E
:101300001FEC0DF0E552E55206D0D9C0E6FFDAC079
:10131000E6FFB1EC0BF0E552E55200017B6B010EEC
:101320001F6A91251E6E92511F221E507B5D000E7A
:101330001F540AE27B51EA6A600FE96E000EEA224E
:10134000200EEF6E7B2BEBD77D6B61D07F0551E1DB
:101350006AD9E66E61D9E552E750EF6E952B000E23
:1013600096239751951953E19851961950E195C0DC
:10137000E6FF96C0E6FF18D9F3CFCBF0F4CFCCF060
:101380000001CD6BCE6BCCAF02D0CD69CE69000E23
:10139000CB5D080ECC59000ECD59000ECE5910E28F
:1013A000D880000ECB55000ECC55000ECD55000E4A
:1013B000CE5506E2BBD8CBC083F0CCC084F005D0BC
:1013C000E5C0E6FFE6C0E6FFF7D800017B6B010E43
:1013D0001F6A95251E6E96511F221E507B5D000EC2
:1013E0001F5405E219D9200EEF6E7B2BF0D77F6BCF
:1013F0000ED07E050CE117D9310803E1010E856F8F
:1014000004D011D9300802E1856B866B7E6B0BD955
:10141000680A71E0200A6FE02E0A3EE0200A3CE0F4
:10142000240A26E0200A24E02F0A17E0200A15E00B
:101430003D0A10E0200A0EE0260A09E0200A07E033
:10144000250A02E0200A5EE1010E7D6F5BD0010EED
:101450007E6F58D0010E7F6F55D080A004D066D823
:1014600079EC0BF04FD0DBC0E6FFDCC0E6FF3ED0EE
:101470008050020B06E18050010B03E0D7D8808238
:1014800013D08050020B05E18050010B02E18082F5
:1014900039D080A237D026D08050020B19E080507E
:1014A000010B16E0C3D88092400EE66E420EE66E47
:1014B00038EC0BF0E552E552CB50E66EE66AC7C059
:1014C000E6FFC8C0E6FF1FEC0DF0E552E55210D074
:1014D0008050020B05E08050010B02E1809212D097
:1014E00080B210D0DDC0E6FFDEC0E6FFB1EC0BF04D
:1014F000E552E55207D01AD888D80001B76BB86B0F
:10150000B96BBA6B00017A2B7DD67A6B79297A5D3B
:1015100005E20AD8200EEF6E7A2BF8D70001786B1F
:10152000AB88A384F28A72D57A5191D0CB50E66E03
:10153000E66AF50EE66EE66A1FEC0DF02DEF0BF095
:10154000DACFE4FFE2CFDAFFE9CFE4FFEACFE4FF4E
:10155000F6CFE4FFF7CFE4FFF5CFE4FFF3CFE4FFEE
:10156000F4CFE4FFFACFE4FF1200E5CFFAFFE5CFB6
:10157000F4FFE5CFF3FFE5CFF5FFE5CFF7FFE5CFCC
:10158000F6FFE5CFEAFFE5CFE9FFE5CFDAFF12008E
:1015900055D8A1EC11F009C0EDFF08C0EDFF07C060
:1015A000EDFF06C0EFFF1200600EE66E000EE66E65
:1015B00098EC0CF02DEF0BF0B1EC0BF0E552E5528E
:1015C0001200EFCF1EF0300EE76E1E181200EFCFA4
:1015D0001FF0390EE76E1F181200E652D9CFE6FF52
:1015E000E1CFD9FF120EE1261200795130D06750B9
:1015F000DF6E010E66CFDBFFDF501200550E0B6E63
:10160000030E0C6E0D6A0E6A120093EC0CF0F3CF11
:101610009DF0F4CF9EF01200600E9525E96E000E4D
:101620009621EA6E120080DFEF501200CBCFC7F098
:10163000C86BC96BCA6B7ADF79EF0BF0EECF06F09F
:10164000EECF07F0EECF08F0EFCF09F01200EA6A14
:101650006C0FE96E000EEA221200E552E552E552E7
:10166000E552120061DFE1EF0AF05EDFE7EF0AF01A
:101670008EDA080EE126DE6ADE6ADE6ADD6ADD5297
:10168000DD52900E086E010E096EFD0EDBCF0DF0DF
:10169000FE0EDBCF0EF022EC0EF006C01EF007C0EF
:1016A0001FF0206A216AA6DA0650EE5C0750EE5859
:1016B0002050EE582150EE5816E2D950040F9FDA10
:1016C000040EEECFDBFF050EEECFDBFF060EEECFF6
:1016D000DBFF070EEECFDBFF8DDAEE2A000EEE22E7
:1016E000EE22EE22CED7080EE15C02E2E16AE5527C
:1016F00049D2CB6ABD96BD94BD90BD92500EE66EA8
:10170000C30EE66EB5DFE552E55280901200F50E8D
:10171000CB6EBD86BD848080120039DA020EE126D0
:10172000DE6ADD6A25DA1F502118E8AE02D02134C6
:1017300001D040DA10E29EA8FED71DDADE501E244A
:10174000E96EDD501F20EA6EEF50AD6EDF2A010E0C
:10175000E9E3DB2AE7D7020EE15C02E2E16AE55247
:1017600011D215DAFD0EDBCFF6FFFE0EDBCFF7FF51
:101770000800F5500FE09EA8FED7FD0EDBCFF6FF68
:10178000DB2AFE0EDBCFF7FF01E3DB2A0800F55072
:10179000AD6EE8D7E552E7CFD9FF1200AC8AAC981E
:1017A000AC84AC9CAB8EAB88AB9CAA862A0EAF6E89
:1017B0009D8A1200F30E936EFE0E926E949494889E
:1017C000F086F090F09CF19AB890B892B894B896E0
:1017D000B898D08EE3DFBD9ABD98040EBE6E949487
:1017E000CA84CA92CA90A50EB66E646A080E656E67
:1017F0003B0E606E4F0E636E87688868310EB76E61
:10180000F28EF28C1200C3D90A0EE126060EDB6AB4
:10181000070EDB6AFC0EDB504E0804E19EA8FED7E3
:101820000A0E07D0FC0EDB50530804E19EA8FED739
:10183000200EAD6EC4D9020E08C0DBFF030E09C036
:10184000DBFFBDD9040E08C0DBFF050E09C0DBFFBE
:10185000D950020FD4D9000ED6D909E2060EDB2AE0
:10186000070E01E3DB2AD950020F6BD9F1D7AED9AD
:101870001E06000E1F5A080E1EC0DBFF090E1FC0F9
:10188000DBFF080EDBCF1EF0090EDBCF1FF01F348D
:1018900030E21E500008000E1F542BE27DD90A0EC4
:1018A0000D6E0E6A1EC008F01FC009F0DCEC11F0CE
:1018B00004C01EF005C01FF004C0DEFF05C0DDFF40
:1018C000300EDE26000EDD22080EDBCFE9FF090E0A
:1018D000DBCFEAFFF90EE926000EEA22DFCFEFFFA9
:1018E000D950040F2ED9080EDB06090ECAE2DB061A
:1018F000C8D752D9300E1E240001F96F060EDBCF77
:10190000E6FF070EDBCFE6FFF90EE66E000EE66E91
:1019100004DFE552E552E552E5520A0EE15C02E2CF
:10192000E16AE5522FD1F3DE010EF36EF46A120084
:101930002ED9080EE126020EDB6A030EDB6A010EC9
:10194000F36E040EF3CFDBFF050EDB6A060EDB6AD7
:10195000070EDB6AFB0EDBCF1EF0FC0EDBCF1FF0A9
:101960001F340AE21E500408000E1F5405E2100E38
:10197000F36E270EF46E5DD0DE6ADD6AF9D82006BC
:10198000000E215A17D911E2D950040F38D90A0E86
:10199000EC02F3CFEDFFEF02F3CFEEFFF450ED26B4
:1019A000DF2A010EEBE3DB2AE9D7DE6ADD6AE0D845
:1019B00001D93AE2F8D8DE502024E96EDD5021202A
:1019C000EA6EEF50D00F1E6E1F6A1EBE1F68020E19
:1019D0001EC0DBFF030E1FC0DBFFDED8D950020F95
:1019E0000ED91EC00DF01FC00EF0EECF08F0EDCFE7
:1019F00009F022EC0EF006C0EEFF07C0EDFF020E6C
:101A0000DBCF1EF0030EDBCF1FF0D950060FF7D847
:101A10001E50EE261F50ED22D950040F92D8DF2A17
:101A2000010EC5E3DB2AC3D7D1D81EC0F3FF1FC008
:101A3000F4FF080EE15C02E2E16AE552A3D0A7D808
:101A4000040EE12680A08080D950FB0FE96EFF0EC6
:101A5000DA20EA6EEE50ED1008E1F50EF36EFB0EA3
:101A6000F3CFDBFFFC0EDB6A52DEFB0EDBCFDEFFCB
:101A7000DBCFDDFF80D8B7D821501F18E8AE02D0E9
:101A80001F3404D01E50205C1F5021581FE2C0D8C4
:101A9000010EE76E88D8E7502026000E21228AD852
:101AA0004AE25ED802E2050E09D05ED804E258D8B8
:101AB00002E30A0E03D058D802E3140E8ED8DF2AB0
:101AC000010E01E3DB2ADF50CB6EE1D754D88BD86F
:101AD0001F502118E8AE02D0213401D06BD81FE28C
:101AE00097D861D82006000E215A1E50205C1F5046
:101AF000215821E235D802E2050E09D035D804E29A
:101B00002FD802E30A0E03D02FD802E3140E65D8B3
:101B1000DF06010E01E2DB06DF50CB6EE1D72BD8EA
:101B2000FB0EDB501E1807E1FC0EDB501F1803E113
:101B3000FD0EDB50CB6E040EE15C02E2E16AE55281
:101B400021D05DD80A0E0D6E0E6AEECF08F0EDCFF3
:101B500009F0DCEC11F008C0EEFF09C0EDFF120047
:101B600049D8960E03EF0EF045D8320E03EF0EF073
:101B70004FD8F3EF0DF0FD0EDBCF1EF0FE0EDBCFE6
:101B80001FF01200E16EE552E7CFD9FF1200D9CF66
:101B9000E6FFE1CFD9FF1200040EDBCF1EF0050EE9
:101BA000DBCF1FF01200FD0EDBCF20F0FE0EDBCFEF
:101BB00021F0120020501E5C21501F581200FD0E13
:101BC000DBCF08F0FE0EDBCF09F01200060EDBCFF4
:101BD0001EF0070EDBCF1FF01200E66EE66A48DD4E
:101BE000E552E5521200FB0EDBCF20F0FC0EDBCFFE
:101BF00021F01200D9CFE9FFDACFEAFF1200E96E37
:101C0000DACFEAFF1200D880EE54000EED54120035
:0A1C1000DECF1EF0DDCF1FF0120042
:061C1A00019E08D0019EAE
:101C200009AE05D0086C091EE86A0922018E09C0B8
:101C300003F008C002F0136A126A8E0E046E056A81
:101C4000BAEF0EF008C012F008500D02F4CF07F002
:101C5000F3CF06F009500E02F4CF09F0F3CF08F0ED
:101C60000D02F3500726F4500822E86A09221250A8
:101C70000E02F3500726F4500822E86A0922000CED
:101C800049EC0EF001B6000C01B0000C01A4000CF0
:101C9000010C016AF6EC0EF00EEC0FF001B612002A
:101CA00001AE08D001A004D001A802D0018012002A
:101CB000019012000F500A5C0BE10E50095C08E124
:101CC0000D50085C05E10C50075C02E10180120038
:101CD000D8A002D0018E10D00A500FC00AF00F6EAB
:101CE00009500EC009F00E6E08500DC008F00D6EC0
:101CF00007500CC007F00C6E0F500A5C10E0FF0F8D
:101D000009E0019001B403D001AE0184120001AEDC
:101D1000019412000F2AD8900E320D320C320C5062
:101D2000075E0D50085A0E50095A09BEEAD7D890DE
:101D30000736083609360A2EF8D7C8D77F0E0A6E3E
:101D4000FF0E096E086E076E12007F0E01BEFF0EB9
:101D50000A6E02D07F0E0A6E800E096E086A076A4C
:101D6000F3D701AE04D0800E0A6E096AF7D70A6A6B
:101D7000096AF4D70350021013101210F8E005BEE0
:101D8000F0D703BE0CD004500510EBE0D89012360B
:101D90001336023603360406D8A00506F2D70550DE
:101DA000D4E10428D2E012AE11D07F0E121402E169
:101DB00013A00CD0132AE86A0222032207E3D8807A
:101DC000033202321332042A0428BFE00450C9E06F
:101DD00013C007F002C008F00334096E04300A6E25
:101DE00009320A9E01BE0A8EA4EF0EF009360A36A9
:101DF00002E30184017E06E101800A6A096A086A39
:101E0000076A12000A2803E0D88009321200D8902D
:101E1000093202E101821200018612000E360F36ED
:101E200002E3018C017E06E101880F6A0E6A0D6AE9
:101E30000C6A12000F2803E0D8800E321200D890EE
:101E40000E32EAE1018A120009C013F008C012F054
:101E500008500D02F4CF07F0F3CF06F009500E0240
:101E6000F4CF09F0F3CF08F00D02F3500726F45039
:101E70000822E86A092212500E02F3500726F45095
:101E80000822E86A09220EAE4AEF0FF01250085EEF
:101E90001350095A13AE000C0D50085E0E50095A2B
:021EA000000C34
:0E1EA2005020257520562025750A000A200DB7
:101EB0002047657265695F696E74657272757074CA
:101EC0005F6E6F5F494E54310A200D000A200D20CD
:101ED0004D43555F6F766572636F756E7465640A06
:101EE000200D000A200D204D43555F736B69707003
:101EF00065645F70756C7365730A200D000A200DB0
:101F000020496E76616C69645F7265717565737482
:101F10006564706F736974696F6E0A200D000A2022
:101F20000D20496E636F727265637420706F736900
:101F300074696F6E732C7472616E736D69737369FB
:101F40006F6E2061626F727465640A200D000A2052
:101F50000D204D6F746F725F69735F6E6F745F7287
:101F60006573706F6E64696E670A200D000A200D3C
:101F7000204D6573736167655F657865637574652A
:101F8000640A200D000A200D204C617365725F7297
:101F90006F746174696E675F696E5F746861745FA6
:101FA000646972656374696F6E0A200D000A200D02
:101FB000204C617365725F616C72656164795F73F7
:101FC000746F707065640A200D000A200D20496E40
:101FD00076616C69645F7265717565737465645F61
:101FE00073706565640A200D000A200D204D73672B
:101FF0005F636F72727570740A200D000A200D20E5
:102000004D73675F72656365697665640A200D00CC
:102010000A200D20486F6D650A200D000A200D2052
:102020005049435F726573657420284D434C5229B3
:102030000A200D000A200D205049435F696E697423
:0C20400069616C697A6174696F6E0A0056
:04204C001E0EF66E00
:10205000000EF76E000EF86E00010900F550F26FE9
:102060000900F550F36F03E1F26701D03DD009009C
:10207000F550ED6F0900F550EE6F0900F550EF6F68
:1020800009000900F550E96E0900F550EA6E0900F3
:1020900009000900F550F06F0900F550F16F0900D3
:1020A0000900F6CFF4F0F7CFF5F0F8CFF6F0EDC079
:1020B000F6FFEEC0F7FFEFC0F8FF0001F05302E1BA
:1020C000F15307E00900F550EE6EF007F8E2F10772
:1020D000F9D7F4C0F6FFF5C0F7FFF6C0F8FF00012E
:0A20E000F207000EF35BBFD71200F9
:0620EA00D9CFE6FFDACFBA
:1020F000E6FFE1CFD9FFE2CFDAFFE652E652E65241
:10210000E652D950FB0F1E6EFF0EDA201F6E1EC066
:10211000DEFFDD6EDECFE6FFDDCFE6FFFB0EDBCFC1
:10212000E6FFFC0EDBCFE6FFFD0EDBCFE6FFF7C0E0
:10213000E6FFF8C0E6FF32EC00F01E6E070EE15C31
:1021400002E2E16AE552E16E1E50020EF3CFDBFFC0
:10215000030EF4CFDBFF020EDBCF1EF0030EDBCF4E
:102160001FF01EC0F3FF1FC0F4FF040EE15C02E28B
:10217000E16AE552E16EE552E5CFDAFFE7CFD9FF3C
:0221800012004B
:0E218200D9CFE6FFDACFE6FFE1CFD9FFE2CFFB
:10219000DAFFFB0EDBCF1EF0FC0EDBCF1FF00001E1
:1021A000800E1F141AE1FB0EDBCFE9FFFC0EDBCF24
:1021B000EAFFEECFF3FFEDCFF4FFEE2A000EEF22A1
:1021C000F3CFE9FFF4CFEAFFFD0EDBCFEFFFEF50D7
:1021D0001F6AF36E1FC0F4FF10D0FB0EDB50FE0829
:1021E00006E1FD0EDBCFE6FF22EC12F005D0FD0E7E
:1021F000DBCFE6FF03EC00F0E552E552E5CFDAFF76
:06220000E7CFD9FF120038
:0A22060006500B02F3CF02F0F4CFF4
:1022100003F00C02F3500326000EF420046E065067
:102220000D02F3500426000EF420056E06500E0237
:10223000F350052607500B02F3500326F4500422F6
:10224000000E052207500C02F3500426F45005221C
:1022500007500D02F350052608500B02F3500426D8
:10226000F450052208500C02F350052609500B02C9
:06227000F35005261200E8
:0A227600FE0EE3CFE9FFFF0EE3CFF9
:10228000EAFFF36AF46AEE5203E0F34AF42AFBD75A
:102290001200FF0EE3CFF8FFE552FF0EE3CFF7FF8A
:1022A000E552FF0EE3CFF6FFE552E66AE66AE66A1C
:1022B0000900F55209E0FD0EE32A05E1FE0EE32ACE
:1022C00002E1FF0EE32AF4D7FD0EE3CF07F0FE0E86
:0C22D000E3CF08F0FF0EE3CF09F012008E
:0422DC00D9CFE6FF71
:1022E000DACFE6FFE1CFD9FFE2CFDAFFE652E652DE
:1022F000D950FD0F1E6EFF0EDA201EC0DEFFDD6E10
:10230000DECFE9FFDDCFEAFFEF9EFA0EDBCF1EF056
:10231000FB0EDBCF1FF0FC0EDBCF20F0FD0EDBCF82
:1023200021F01EC006F01FC007F020C008F021C039
:1023300009F0E552E552E552E5CFDAFFE7CFD9FFE4
:02234000120089
:0E234200056A046A036A026A200EE76ED890EC
:1023500006360736083609360236033604360536A1
:102360000B50025C0C5003580D5004580E50055889
:1023700009E30B50025E0C50035A0D50045A0E50E4
:0A238000055A062AE72EE4D71200E2
:06238A00FF0EE3502A6E75
:10239000EF0E01D0F30EE76EE72ECCEF11F00C0E2E
:1023A000296EE76AE72ED2EF11F0292ED1EF11F056
:0823B0002A2ECAEF11F0120001
:0823B800056A046A100EE76ECD
:1023C000D89008360936043605360D50045C0E5098
:1023D000055805E30D50045E0E50055A082AE72EF5
:0423E000F0D7120020
:0C23E400F36AF46AFF0EE124E96EFF0EBC
:1023F000E220EA6EED6607D02F0EEF6404D03A0EAD
:08240000EF6001D0F32A120085
:08240800000EF36E00EE00F07F
:10241000030E01D81200EA6002D0EE6AFCD7F35036
:08242000E9601200EE6AFCD72E
:0824280012EE00F022EE00F0BC
:10243000F86A019C26EC10F007EC00F0C9EC07F0FC
:04244000FBD71200B4
:0C244400FF0EE350ACBA04D0AF6AAB8EC0
:10245000AC8A949CACA2FED7AD6EF36EF46A120007
:10246000303132333435363738396162636465660A
:01247000006B
:0F24710034201C201020FC1FE91FCA1FAD1F853F
:0F2480001F6D1F4E1F1E1FFD1EE31ECC1EAD1E27
:020000040030CA
:0100010002FC
:010003003EBE
:010004001CDF
:010006008079
:00000001FF
