:060000000A128A11122809
:10000800FE00030EF1000408F2000A08F300831250
:1000180003137F08F4000A128A15AF2F0A128A15F3
:10002800EB2D83120313A4002408C0399F00240871
:100038002039A00002300310A00DFF3E031D1F2829
:1000480024080F392007831603139F008312031314
:10005800A41A2F28302835280130A0002008E600EF
:100068003A280430A0002008E6003A28241E3D283B
:100078003E284F28831603130C08BF398312031335
:10008800A000A1012008A2002108A30022088316CD
:1000980003138C006028831603130C08BF398312DE
:1000A8000313A000A1012008A2002108A300220830
:1000B800831603138C006028831203130C08BF39BE
:1000C800A000A1012008A2002108A30022088C009A
:1000D800080083120313B800F030A900290894051A
:1000E8000B30A900290894040A128A15C7250A1298
:1000F8008A1183120313A60138080A128A15AF263B
:100108000A128A11413083120313A9002908AA0090
:100118008F30A9002908AB00A130A9002908AC003C
:10012800FF30A9002908AD00AE01AF013030A900A9
:100138002908B0006408A9002908B1006030A900A6
:100148002908B200B3017030A9002908B400B5012C
:100158000C30A9002908B9002A08A5008030A6009B
:100168003908A9002908A7000A128A157B270A124C
:100178008A110A128A15D7250A128A1108008312D1
:100188000313AA001F08C039013EA8002808AD00C3
:100198002A08A80003300310A80DFF3E031DCF282E
:1001A80038302805A9002D0829079F001F15DD28CC
:1001B8000000831203131F19E228E328DC28E4282F
:1001C80066080A128A1100210A128A11831203137F
:1001D8002108AC01AC072008AB01AB072C08A7012C
:0C01E800A7072B08A601A607F9280800AD
:10020000FF0001308A007F08820705290A128A153B
:10021000F92E0A128A154B2E831203134E08D400AE
:100220004F08D5005008D6000310550D560DD700C5
:10023000570883160313B200831203135108D40026
:100240005208D5005308D6000310550D560DD7009F
:10025000570883160313B1003208031D30294329C0
:10026000310832020318352936294C293203FF3A66
:10027000310783120313D40019305402031C41299F
:1002800042294C29432983125108CE005208CF003D
:100290005308D000902A902A831603133108031DB7
:1002A000522964293208310203185729582965292F
:1002B0003103FF3A320783120313D400193054027A
:1002C000031C632964296529902A06308312D4000F
:1002D000540883160313B00083120313D01F71292F
:1002E0007229752983160313B0178312D31F792936
:1002F0007A297D298316031330178312CF17FF3015
:10030000CE05FF30CF050030D005D217FF30D10524
:10031000FF30D2050030D3058316031331083202B3
:10032000031893299429CD299529013003108312AC
:100330000313D10DD20DD30DFF3E031D96290130BD
:1003400083160313B102310832060319A829A9291B
:10035000C5290130B00230080739031DB029B12981
:100360009529C529C529C529013003108312031316
:10037000D00CCF0CCE0CFF3E031DB5290130D400AC
:10038000540883160313B207C52932083106031D2A
:10039000CA29CB29B4290C2A0C2A320831020318A5
:1003A000D229D3290C2AD429013003108312031334
:1003B000CE0DCF0DD00DFF3E031DD5290130831684
:1003C0000313B202310832060319E729E829042A87
:1003D0000130B00230080739031DEF29F029D42974
:1003E000042A042A042A0130031083120313D30CB5
:1003F000D20CD10CFF3E031DF4290130D400540867
:1004000083160313B107042A32083106031D092A93
:100410000A2AF3290C2A0C2AB01F0F2A102A232A91
:10042000FF3083120313CE06FF30CF06FF30D00615
:100430000130CE07003003180130CF070030031819
:100440000130D007232A83160313301F282A292AB4
:100450003C2AFF3083120313D106FF30D206FF304F
:10046000D3060130D107003003180130D207003025
:1004700003180130D3073C2A83160313B0018312FB
:1004800003134E08D1074F08031103184F0A03192D
:100490004A2AD207500803110318500A0319512A97
:1004A000D307D31F542A552A6B2AFF30D106FF30B9
:1004B000D206FF30D3060130D107003003180130D7
:1004C000D207003003180130D30783160313B0019D
:1004D0000314B00D6B2A83125108A0005208A1002A
:1004E0005308A20083160313320883120313D400A7
:1004F0005408A30083160313300883120313D50096
:100500005508A4000A128A11B9260A128A11831208
:1005100003132008CE002108CF002208D000902A23
:1005200008000A128A11F9230A128A115E300A128F
:100530008A116D200A128A119D2A00300A128A112E
:10054000C3200A128A11831203132708DC01DC0777
:100550002608DB01DB076208031DAF2AC02A013031
:100560000A128A11C3200A128A1183120313260861
:1005700083160313B300330883120313DF00D12A59
:1005800003300A128A11C3200A128A11831203133C
:10059000260883160313B300330883120313DF0006
:1005A000D12A5C08B701B7075B08B601B6070A1283
:1005B0008A1530260A128A11831203133608C100E5
:1005C0003708C2003808C3005808BE005908BF00E9
:1005D0005A08C0000A128A1125250A128A118312AC
:1005E00003133E08A8003F08A9004008AA000A1209
:1005F0008A1113260A128A118312031328088316FC
:100600000313B300330883120313E3008130630242
:10061000031C0B2B0C2B142B803083160313B300FD
:10062000330883120313E300630883160313B30034
:10063000330883120313E700630883160313B30020
:10064000330883120313E500630883160313B30012
:100650003308A90083120313650883160313B3003C
:100660003308AB0083120313670883160313B30028
:100670003308AD006730B300330883120313A900B9
:10068000063083160313B400340883120313AA0040
:100690005E300A128A15D3260A128A1183120313B6
:1006A000600883160313B300B401B309B409B30A95
:1006B0000319B40A831203135F0883160313330765
:1006C00083120313B4008316031334080318340A87
:1006D00083120313B5000A128A1520270A128A1101
:1006E000831203133408BA003508BB003608BC0077
:1006F0000A128A154C270A128A11831203133A0828
:10070000A8003B08A9003C08AA0061080A128A1543
:100710006A260A128A11831203133608AB003708BF
:10072000AC003808AD000A128A1136270A128A1165
:1007300003189B2B9C2B9D2A831203135F080A121C
:100740008A156A260A128A11831203133608C10019
:100750003708C2003808C300831603132008831229
:100760000313BE0083160313210883120313BF0073
:1007700083160313220883120313C0000A128A117E
:1007800025250A128A11831203133E08D1003F085F
:10079000D2004008D30077080A128A156A260A1286
:1007A0008A11831203133608CE003708CF003808A9
:1007B000D0000A128A110C210A128A118312031323
:1007C0004E08A8004F08A9005008AA000A128A1172
:1007D00013260A128A11831203132908F601F60759
:1007E0002808F501F5079D2A9D2A9D2A0A128A11DB
:1007F0001228073083160313850001308600FF306E
:1008000087003830A3008630A4003530A5000030C2
:1008100083120313BE00A030BF004030C000831617
:100820000313230883120313C10083160313240840
:1008300083120313C20083160313250883120313C4
:10084000C3000A128A1125250A128A118312031382
:100850003E08EC003F08ED004008EE006C08C100C7
:100860006D08C2006E08C300D730BE00A330BF00C1
:100870003C30C0000A128A1125250A128A118312FF
:1008800003133E08A8003F08A9004008AA000A1266
:100890008A1113260A128A11831203132908EB0105
:1008A000EB072808EA01EA076C08C1006D08C200DE
:1008B0006E08C3000030BE000030BF000030C00032
:1008C0000A128A1125250A128A11831203133E087F
:1008D000A8003F08A9004008AA000A128A1113269E
:1008E0000A128A11831203132908E901E90728086B
:1008F000E801E8076C08C1006D08C2006E08C3007B
:100900000030BE000030BF000030C0000A128A1163
:1009100025250A128A11831203133E08A8003F08F6
:10092000A9004008AA000A128A1113260A128A1185
:1009300083120313290883160313A701A707831241
:100940000313280883160313A601A60783120313B3
:100950006809CE006909CF00CE0A0319CF0A8316B1
:1009600003132608831203134E07D00083160313C4
:1009700027080318270A831203134F07D1000A30F0
:100980000310D10CD00CFF3E031DC02C5008B60044
:100990005108B7000A128A1530260A128A118312EA
:1009A0000313360883160313A000831203133708BA
:1009B00083160313A100831203133808831603134D
:1009C000A200831203136808CE004E08F7006908DE
:1009D000F601F6076808F501F50784300A128A1156
:1009E00015200A128A1183120313861486168316A1
:1009F0000313A801603083120313CE004E08831640
:100A00000313AA00703083120313CE004E0883161E
:100A10000313AC008312031306120030D800003019
:100A2000D9004130DA004030CE004E08E400DD014C
:100A3000DE01E2017430831603138100013083125A
:100A400003138100F0308B000800831203133E086B
:100A5000C4003F08C5004008C6000310450D460D00
:100A6000C7004708C800C808031D372D382D402D82
:100A70000030BE000030BF000030C000122E122E29
:100A80004108C4004208C5004308C6000310450DD4
:100A9000460DC7004708CD00CD08031D502D512D30
:100AA000592D0030BE000030BF000030C000122EB3
:100AB000122E4D087B3EC4004408C8073E08C400FF
:100AC0003F08C5004008C60010300310C60CC50C16
:100AD000C40CFF3E031D652D4408C7004708CD0028
:100AE0004108C4004208C5004308C6001030031086
:100AF000C60CC50CC40CFF3E031D772D4408C7006F
:100B00004708CD068030C4004408CD05BF17C21782
:100B1000FF30C105FF30C2050030C3050030C900F9
:100B20000030CA000030CB000730C4004408CC00BD
:100B3000992D3E1C9C2D9D2DAE2D4108C9074208C4
:100B400003110318420A0319A62DCA07430803110B
:100B50000318430A0319AD2DCB07AE2D0130031046
:100B6000C00CBF0CBE0CFF3E031DAF2D01300310A7
:100B7000C10DC20DC30DFF3E031DB72D0130CC02C8
:100B8000031DC32DC42D992DC52D0930C400440863
:100B9000CC00CA2D3E1CCD2DCE2DDF2D4108C9071E
:100BA000420803110318420A0319D72DCA07430844
:100BB00003110318430A0319DE2DCB07DF2D013083
:100BC0000310C00CBF0CBE0CFF3E031DE02D013016
:100BD0000310CB0CCA0CC90CFF3E031DE82D0130DD
:100BE000CC02031DF42DF52DCA2DF62D4908A000C9
:100BF0004A08A1004B08A2004808C4004408A3000A
:100C00004D08C5004508A4000A128A11B9260A1227
:100C10008A11831203132008BE002108BF00220896
:100C2000C000122E0800831203132808AC00290804
:100C3000AD002A08AE0003102D0D2E0DAF002F08B9
:100C4000B500B508031D252E262E302E0030AB0032
:100C50000030AA000030A9000030A800B82EB82E3D
:100C60002808AC002908AD002A08AE001730031090
:100C7000AE0CAD0CAC0CFF3E031D372E2C08AF00A4
:100C80002F08B000A917FF30A805FF30A9050030D4
:100C9000AA052808B1002908B2002A08B300B40147
:100CA0008E30B502B51F552E562E7B2E3508803A54
:100CB0008F3E03185C2E5D2E682E0030AB00003096
:100CC000AA000030A9000030A800B82EB82E682E67
:100CD00001300310B40CB30CB20CB10CFF3E031D79
:100CE000692E0130AC002C08B507031D782E792E33
:100CF000682E9F2E9F2E18303502031C802E812EC9
:100D0000982E0030AB000030AA000030A90000305F
:100D1000A800B82EB82E982E0130AC000310B10DEB
:100D2000B20DB30DB40DAC0B8E2E0130B502982E62
:100D3000B508031D9C2E9D2E8C2E9F2E9F2E3008B5
:100D4000031DA32EAF2EB109B209B309B409B10A2C
:100D50000319B20A0319B30A0319B40AAF2E3408EF
:100D6000AB003308AA003208A9003108A800B82E49
:100D70000800831203132308031DBF2EC72E220869
:100D800021042004031DC52EC62EDD2EC72E0030E3
:100D9000A0000030A1000030A200352F352FDD2E3D
:100DA0000130A5002508A30701300310A20CA10CF7
:100DB000A00CFF3E031DD52EDD2EFE302205031DA7
:100DC000E22EE32ED02EFB2EFB2E0130A5002508AF
:100DD000A3070130A007003003180130A10700303D
:100DE00003180130A20701300310A20CA10CA00CC3
:100DF000FF3E031DF42EFF302205031D002F012F9F
:100E0000E52E0E2F0E2F0130A30201300310A00D8E
:100E1000A10DA20DFF3E031D062F0E2FA11F112FA6
:100E2000122F032F2318152F162F1C2FFF30A0056C
:100E30007F30A105FF30A2050310A30C2308A500F5
:100E4000A601A70110300310A50DA60DA70DFF3EAA
:100E5000031D232F2508A0042608A1042708A204A7
:100E60002408031D342F352FA21708008312031303
:100E7000AA1F3B2F3C2F622F0030AE000030AF0086
:100E80008030B0002809B1002909B2002A09B30056
:100E9000B10A0319B20A0319B30A3108AE073208BE
:100EA0000318320F542F552FAF0733080318330F91
:100EB0005A2F5B2FB0072E08A8002F08A900300872
:100EC000AA00622FAD1F652F662F8C2F0030AE0059
:100ED0000030AF008030B0002B09B1002C09B20007
:100EE0002D09B300B10A0319B20A0319B30A310874
:100EF000AE0732080318320F7E2F7F2FAF0733085B
:100F00000318330F842F852FB0072E08AB002F084E
:100F1000AC003008AD008C2F8030AA068030AD06C2
:100F20002D082A02031D9A2F2C082902031D9A2F2F
:100F30002B08280203189D2F9E2FA02F0310A32FEC
:100F40000314A32FA32F080083120313A20007305A
:100F5000A1002108A300A31FAE2FAF2FB12FFD2F9B
:100F6000FD2F831603138711831203132208A10098
:100F7000230ABC2F0310A10CFF3E031DBA2F21181A
:100F8000C22FC62F831603130716C92F8316031308
:100F90000712831203132208A100230AD12F031082
:100FA000A10CFF3E031DCF2F211CD72FD82FDC2FE4
:100FB000831603130716DF2F83160313071264002B
:100FC0008316031387150A128A1501260A128A113D
:100FD000003A0319EC2FED2FF02F0130FF2FFF2FD8
:100FE000F12FF22FFF3083120313A1002108A30772
:100FF000A31FFB2FFC2FB12FFD2F0030FF2F080068
:10100000FF1B0A2883137F1883170008840A03191B
:10101000FF0A08007F087F398A000408840A031940
:04102000FF0A820041
:101B440064008001840A0406031900340406A32DEA
:101B5400831203132208210420040319B22DB32D88
:101B6400B62D8030A206B62DB72D080083120313BC
:101B7400A5000030A408031D013025040A128A11AF
:101B8400A4270A128A15C62D080083160313871189
:101B940007166400831603138715D02DD12D8316E1
:101BA40003130712D52DD62D08008316031307122D
:101BB40087156400831603138715E02DE12D831622
:101BC40003130716E52DE62D640083160313071689
:101BD4000800F80183135830840068300A128A150B
:101BE400A2250A128A15A8308400B0300A128A1578
:101BF400A2250A128A1583010A128A11912A8312D4
:101C040003138719062E072E152E0330A000A00BF0
:101C1400092E831203138719102E112E152E01304D
:101C2400172E172E152E0030172E080083120313BB
:101C3400A40024080A128A11A4270A128A15003A59
:101C44000319252E262E292EFF302F2E2F2E0A1271
:101C54008A158B260A128A152F2E08008312031365
:101C64003608A0003708A100A2018E30B900390857
:101C7400A300A4010A128A11B9260A128A15831232
:101C840003132008B6002108B7002208B8004A2E22
:101C94000800831203131E08A200A3012208A30054
:101CA400A2012208A4002308A500831603131E081A
:101CB400831203132407A40025080318250AA5008A
:101CC4002508A101A1072408A001A007692E080086
:101CD40083120313BD003D08B900BA01BB013908E2
:101CE400A0003A08A1003B08A2008E30BC003C08CA
:101CF400A300A4010A128A11B9260A128A158312B2
:101D040003132008B6002108B7002208B8008A2E61
:101D140008008316031387110716902E912E83163D
:101D2400031387156400003083120313071A01306C
:101D3400A1002108A2000A128A1501260A128A1596
:101D4400003A0319A62EA72EAA2EFF30AE2EAE2ED1
:101D5400831203132208AE2E080083120313A80073
:101D64000A128A15C7250A128A1583120313260834
:101D7400A7002708A40028080A128A15B8250A1201
:101D84008A150A128A158B260A128A15003A031933
:101D9400CC2ECD2ED02E0130D22ED22E0030D22EEB
:101DA400080083120313AC000A128A15C7250A120D
:101DB4008A1583120313A6012C080A128A15AF266A
:101DC4000A128A15831203132908A5000030A600FD
:101DD4002A08AB002B08A7000A128A157B270A12CF
:101DE4008A150A128A15D7250A128A150800831241
:101DF40003131E08A200A3012208A300A2012208C3
:101E0400A4002308A500831603131E0883120313DA
:101E1400A20006300310A20CFF3E031D0C2F220863
:101E24002407A40025080318250AA5002508A101F4
:101E3400A1072408A001A0071F2F08008312031381
:101E4400B901B51F262F272F302FB409B509B40ABD
:101E54000319B50AB9010314B90D302F3408A000D1
:101E64003508A100A2018E30B7003708A300390855
:101E7400B8003808A4000A128A11B9260A128A1571
:101E8400831203132008B4002108B5002208B60009
:101E94004B2F0800831203133A08A8003B08A9003B
:101EA4003C08AA000030AB000030AC000030AD00AC
:101EB4000A128A1136270A128A150318622F632F11
:101EC4007A2F831203133A08A0003B08A1003C08B0
:101ED400A2000A128A15AA250A128A15831203136C
:101EE4002008BA002108BB002208BC007A2F7A2FF0
:101EF4000800A62F831203132608FF002508840078
:101F04000A128A1500200A128A150A128A1518263E
:101F14000A128A1583120313A800FF3A031D932F94
:101F2400942F972FAE2FAE2F9E2F2808031D9B2F83
:101F34009E2FAE2FAE2F9E2F0130A5070318A60AA1
:101F44000030A6070130A70283120313A708031D5C
:101F5400AC2FAD2F7C2FAE2F08008B1EB22FB32FCA
:101F6400DC2F0B1DB62FB72FDC2F0B118B1201307A
:101F7400DD070318DE0A0030DE075E087602031D63
:101F8400C52F5D0875020318C82FC92FCB2F051163
:101F9400DA2F5E086B02031DD12F5D086A02031855
:101FA400D42FD52FDA2F0515DD01DE01DA2FDA2F34
:101FB4008B16DC2F0B1EDF2FE02FF52F8B1CE32F4E
:101FC400E42FF52F0B128B10403083160313810678
:101FD40083120313E208003003190130F000700883
:101FE400E2000B16F52F7408FF0073088A007208CC
:0C1FF4008400710E8300FE0E7E0E0900BA
:02400E007AFF37
:00000001FF
