:020000040000FA
:060000009CEF13F012005A
:020006001200E6
:060008002DEF06F01200CE
:02000E001200DE
:02001000FEFFF1
:06001800F6EF06F01200F5
:02001E000200DE
:1000200081270000CD0000001C000000100000002F
:08003000F300000002000000D3
:0800380058EC05F0FB0EDBCFD4
:10004000F3FFDB06F35000090AE0A6EC05F0FA0E18
:1000500011EC06F0F3E11F1CF1E1010E01D0000EDE
:1000600087EF05F058EC05F03B0EE12402E3E16870
:10007000E652E16E010EDB6A020EDB6AF90EDBCF9F
:10008000F6FFFA0EDBCFF7FFFB0EDBCFF8FF080021
:10009000F550DF6EDF5002E1ABEF04F0250EDF5CC0
:1000A00002E09EEF04F0030EDB6A040EDB6A050E2D
:1000B000DB6A060EDB6A070EDB6AC0EC04F02D0E6D
:1000C000DF5C0CE02B0EDF5C09E0200EDF5C06E05D
:1000D000230EDF5C03E0300EDF5C1AE1DF50300AF4
:1000E00014E0130A0FE0030A0AE00B0A05E0060A0F
:1000F000E4E1030EDB80E1D7030EDB82DED7030EE3
:10010000DB84DBD7030EDB86D8D7030EDB88D5D79D
:100110002A0EDF5C1BE1BCEC04F00AEC05F010E0F9
:10012000030EDB8008680968130EDBCF0DF0140E98
:10013000DBCF0EF0B7EC10F0040E06C0DBFF03D0EF
:10014000130EF3EC04F0C0EC04F00BD0090EDB6AE4
:1001500061EC05F003E0D5EC05F0FAD7090EF3ECFD
:1001600004F0030EDBB0DB982E0EDF5C1BE1C0EC6D
:1001700004F02A0EDF5C0BE1BCEC04F00AEC05F0A5
:1001800003E1130E45EC05F0C0EC04F00BD0090EB2
:10019000DB6A61EC05F003E0D5EC05F0FAD7090E57
:1001A00045EC05F0680EDF5C07E1C0EC04F0680E7A
:1001B000DF5C1DE1030E18D0740EDF5C17E07A0ED1
:1001C000DF5C14E0480EDF5C06E0540EDF5C03E009
:1001D0005A0EDF5C02E1020E07D06C0EDF5C03E01A
:1001E0006A0EDF5C04E1010E98EC05F0C9DBDF501C
:1001F0006E0A01E17FD31E0A01E192D1200A01E1DA
:100200008FD13F0A01E149D11A0A01E146D10D0A15
:1002100001E143D1200A01E140D13A0A01E13DD197
:10022000200A01E13AD1260A01E135D10D0A01E1A6
:1002300032D11A0A01E1D9D0200A4AE0300A1FE07F
:10024000460A0EE0250A01E083D3D950F90FE96E82
:10025000FF0EDA20EA6E010EEE5E000EEE5AEE5A46
:10026000A6EC05F0250EE66E95DB03E11F1C01E10F
:1002700069D3A2EC05F001E26BD3DB2A69D3080E47
:10028000DB6A040EDB50010806E2040EDB046AECB4
:1002900005F0DB508BDB080EDB5009E0030EDB5072
:1002A000010B05E172DB01E04DD3080EDB6A64DB74
:1002B000EFCFDFFF1AEC06F003E11F1C01E142D390
:1002C000A2EC05F001E3DB2A60DB01E141D33AD384
:1002D000070EDB5002080FE1E6EC05F0030EADEC73
:1002E00005F00E0EEECFDBFF0F0EEECFDBFF100E94
:1002F000EECFDBFF20D0F70EDBCF21F0F80EDBCF07
:1003000022F0020E215E000E225AF70E21C0DBFF02
:10031000F80E22C0DBFF21C0E9FF22C0EAFF9DECFE
:1003200005F0206A0E0E1EC0DBFF0F0E1FC0DBFFA4
:10033000100E20C0DBFF0E0EDBCFE6FF0F0EDBCF73
:10034000E6FF100EDBCFE6FFD1EC12F0E552E552EE
:10035000E552130E07C0DBFF140E08C0DBFF060ECC
:10036000DB5005E0130EE1EC05F001E26ADB05EC81
:1003700006F002E2130E37DBC8EC05F006E0040ECF
:10038000E1EC05F002E2050E2EDB030EDBB005D03A
:10039000FCDA01E0D7D2080EDB6A090EDB6A0E0E2A
:1003A000DBCFF6FF0F0EDBCFF7FF100EDBCFF8FF32
:1003B0000800F550DF6EDF5014E00BEC06F011E2A0
:1003C0001AEC06F003E11F1C01E1BCD2BBDB01E328
:1003D000DB2A090EDB2AD9500E0FE96E000ECBDBAB
:1003E000E7D7D3DA01E1B4D2ADD2C6DA110EEECF3F
:1003F000DBFF120EEDCFDBFF110EDBCFE6FF120E9F
:10040000DBCFE6FFC3EC12F0E552E552130EF3CF5B
:10041000DBFF140EF4CFDBFF060EDB5004E0130EFF
:10042000D0DB01E20EDB05EC06F002E2130EDBDAB4
:10043000AFDB05E0040EC5DB02E2050ED4DA030EE5
:10044000DBB005D0A2DA01E07DD2080EDB6A090E2E
:10045000DB6A110EDBCFE9FF120EDBCFEAFFEFCF35
:10046000DFFFDF5014E0D7DB12E2E4DB03E11F1C07
:1004700001E168D267DB01E3DB2A090EDB2A110EFA
:10048000DB2ADBCFE9FF120EE8E3DB2AE6D77DDAD1
:1004900001E15ED257D2030EDB8E070EDB0410E1C2
:1004A00095DB040E5ADB0A0EEECFDBFF0B0EEECF10
:1004B000DBFF0C0EEECFDBFF0D0EEECFDBFF6CD0C3
:1004C000070EDB5003082CE1030EDBAE0DD0B2DAD1
:1004D000020E76DAEFCF1EF01F6A206A216A1EAE86
:1004E00039D01F68206835D0F70EDBCF1FF0F80E2B
:1004F000DBCF20F0020E1F5E000E205AF70E1FC049
:10050000DBFFF80E20C0DBFF1FC0E9FF20C0EAFFC1
:10051000EFCF1EF00A0E1EC0DBFF0B0EDB6A38D0D9
:10052000070EDB50020809E1030EDBAE04D059DBF5
:1005300020AE10D00ED055DB0DD0030EDBAE12D0A6
:1005400079DA020E3DDAF9DA206A216A1FAE02D0AA
:1005500020682168E2DA0C0E20C0DBFF0D0E21C0FE
:10056000DBFF1AD0F70EDBCF20F0F80EDBCF21F047
:10057000020E205E000E215AF70E20C0DBFFF80E9F
:1005800021C0DBFF20C0E9FF21C0EAFFD6DAC5DACF
:100590000C0EDB6A0D0EDB6A060EDB5005E1010E68
:1005A000F36E050EF3CFDBFF150EDB6A160EDB6A6A
:1005B000D950370F1E6E000EDA201F6E390E1EC086
:1005C000DBFF3A0E1FC0DBFF380EDB6A080EDB6A6A
:1005D0000A0EAEDADF50780A12E0200A10E0280A8C
:1005E0000CE0200A0AE03F0A06E00D0A02E0200AB9
:1005F00008E1020E05D0080E03D0080EDF26100E0B
:1006000097DA030EDBBE02D0DB92DB94DB50800B6B
:1006100024E08ADAD890030EEB50000A08E6000EB8
:10062000EE5C000EEE58000EEE58000EEE5815E28D
:1006300013DA0B680C680D680E688BEC12F00A0E6A
:1006400002C0DBFF0B0E03C0DBFF0C0E04C0DBFFA0
:100650000D0E05C0DBFF2D0E08D0030EDBA202D06D
:100660002B0E03D0DBA408D0200EF36E170EF3CFB1
:10067000DBFF150EDB2A02D0170EDB6A050EDB50FE
:1006800003E1B7D901E189D0700E1E6E270E1F6EEF
:10069000000E206E070EDBCF21F0226A236A246A47
:1006A00021C00BF022C00CF023C00DF024C00EF0CE
:1006B000D3D929EC13F01E500224F36E1F500320EF
:1006C000F46E20500420F86EF4CFF7FFF3CFF6FF5E
:1006D0000800090EF5CFDBFF580EDF5C0FE1610E5D
:1006E000F36E090E7BD90AE3200E1E6E090EDBCFD6
:1006F000E7FF1E50E75E090EE7CFDBFF070EDBCFFB
:100700001EF01F6A206A216A0FDA1EC00BF01FC09C
:100710000CF020C00DF021C00EF0EECF06F0EECFB1
:1007200007F0EECF08F0EFCF09F029EC13F009C085
:10073000EDFF08C0EDFF07C0EDFF06C0EFFF390E6B
:10074000DBCFE9FFDB063A0EDBCFEAFF01E2DB0697
:10075000090EDBCFEFFF150EDB2A4BD995E1030E17
:10076000DBA61DD06F0EDF5C06E1C1D918E3150EC4
:10077000DB285BDA14D0780EDF5C09E0580EDF5C12
:1007800006E0620EDF5C03E0420EDF5C08E1020E71
:10079000F36E160EF3CFDBFF02D0150EDB6A030EED
:1007A000DB50100B0EE0040EDBCF1EF0050EDB500D
:1007B000D8801E5406E2060EDB5003E1040EDB5027
:1007C00034DA95D90AE2050EDBCFE7FF150EDB50D0
:1007D000E75E050EE7CFDBFF02D0050EDB6A040EF5
:1007E000DBCF1EF0160E45D9D8801E5414E2160E2B
:1007F000DBCFE6FF150EDBCFE6FF040EDBCFE6FF17
:10080000050EDB50E552E75CE552D880E754E5522F
:10081000D880E7545FD9030EDB50010B0BE1080EC3
:10082000DB5008E0B2D801E08DD0080EDB50BED816
:10083000080EDB6A170EDB5007E088D9170EF1D9D6
:1008400003E11F1C01E17ED0160EDB5016E07ED9BD
:10085000300EE66E9FD802E11F1C74E077D9DFCF1F
:10086000E6FF49EC12F0E552E552E552F4CF1FF0F5
:100870000001F31C02E11F1C65E0050EDBCF1EF03A
:10088000160EDB50D8801E5409E2050EDBCFE7FFC1
:10089000160EDB50E75E050EE7CFDBFF300EE66E8F
:1008A000050ECBD94FE1390EDB2ADBCFE9FF3A0E3B
:1008B00001E3DB2ADBCFEAFF090EEFCFDBFFDB50E2
:1008C0000EE044D9090EADD902E11F1C3BE0390E00
:1008D000DB2ADBCFE9FF3A0EEDE3DB2AEBD755D875
:1008E00031E1160EDBCFE6FF080EC3D8E552E72450
:1008F0005DD82ED0070EDB50030A1CE0010A14E07D
:10090000030A07E07BD9DBCFEEFF020EDBCFEDFF62
:100910001FD0F5D8236A21AE02D0226823682CD8D4
:10092000BCD823C0EEFF14D0EAD821BE226824D858
:10093000B4D80ED063D9DBCFEFFF0AD07BD905E165
:100940001F1C03E1F368F46810D0FCD801E3DB2A34
:1009500079D947EF00F0010EDBCF1EF0020EDBCF9E
:100960001FF01EC0F3FF1FC0F4FF3B0EE15C02E26C
:10097000E16AE552E16ECBD029D9020EADEF05F068
:1009800061D90800F550DF6E1200200EE66E080EE9
:100990001DEF06F049EC12F0E552E552E552F3CFB7
:1009A0001EF0F4CF1FF00001F31C12001E6E1F6A30
:1009B000D950010F4DD91E50EE261F50ED221200C6
:1009C000225E000E235AF70E22C0DBFFF80E23C072
:1009D000DBFF22C0E9FF23C0EAFF1200DBCFF4FFF8
:1009E000F350F45C1200DB50E76E040EE7CFDBFF40
:1009F00012000A0EDBCF1EF00B0EDBCF1FF00C0E29
:100A0000DBCF20F00D0EDBCF21F01E501F10201089
:100A100021101200130EEECFDBFF140EEDCFDBFF23
:100A2000130EDBCF1EF0140EDBCF1FF00001800E83
:100A30001F141200F70EDBCF22F0F80EDBCF23F0ED
:100A40001200050EDB50E66ED950130F01D9E552A6
:100A5000E750EE6EED6A12000A0EDBCF06F00B0EC9
:100A6000DBCF07F00C0EDBCF08F00D0EDBCF09F06B
:100A70001200DBCFE6FF150EDBCFE6FF050EDB50E5
:100A8000E552E724E552E7241200DB50CED8010EF0
:100A9000F36E060EF3CFDBFF1200EE50EFCFEAFF4E
:100AA000E96E20C0EEFF21C0EEFF22C0EEFF120073
:100AB000D9CFE6FFDACFE6FFE1CFD9FFE2CFDAFF09
:100AC0001200DFCFE6FFE66A7AEC13F0E552E5525A
:100AD000F3501200E76E080EE7CFDBFF1200EECFF7
:100AE0001EF0EECF1FF0EFCF20F0216A1200050EAE
:100AF000DBCF1EF0150EDB50D8801E541200010E05
:100B0000DBCF20F0020EDBCF21F0226A1200E5528B
:100B1000E5CFDAFFE7CFD9FF12000A0E1EC0DBFFD8
:100B20000B0E1FC0DBFF1200D9500A0F28EF06F092
:100B3000F36E070EF3CFDBFF1200EECF1EF0EFCF08
:100B40001FF01200010EDB2A020E1200FC0EDBCF9A
:100B5000E6FFFD0EDBCFE6FF12001E5E000E1F5A01
:100B6000F70E1EC0DBFFF80E1FC0DBFF1EC0E9FF43
:100B70001FC0EAFF1200DA20EA6EEF2AEECFF6FF7E
:100B8000000EEF22EECFF7FFEF22EECFF8FF1200BC
:100B9000040EDBCFE6FF130EDB50E552E75C9ADF75
:100BA000DB5004DF060EDB501200090EDB500A0D8D
:100BB000F350DF24D00FE76E090EE7CFDBFFC0EF65
:100BC00004F0DB50F36E050EEEEF04F0F70EDBCF12
:100BD0001EF0F80EDBCF1FF01200DFCFE6FFCAEFEA
:100BE00004F028DF030EECDE6FEF05F01CEC00F0E4
:100BF000E552E552E552E55200091200BDDEEE5025
:100C0000EFCFEAFFE96E010E1200130EDB50F36E18
:100C1000040EEEEF04F0040EDB50F36E090EEEEF5F
:100C200004F0DBCFE6FFCAEF04F0E76E050EE7CF76
:100C3000DBFF12008BDFEDEF05F0DBCFE6FF86DF99
:100C4000F6EF05F0D950F90FE96EFF0EBBEF05F096
:0A0C5000E96E000EDA20EA6E1200D1
:060C5A00DACFE4FFE2CF57
:100C6000DAFFE9CFE4FFEACFE4FFF6CFE4FFF7CF06
:100C7000E4FFF5CFE4FFF3CFE4FFF4CFE4FFFACFD6
:100C8000E4FF00EE00F0140EE80403E3EECFE4FF0F
:100C9000FBD700EE1EF0070EE80403E3EECFE4FFFF
:100CA000FBD7E652D9CFE6FFE1CFD9FF080EE12608
:100CB0009EAA28D0A394A494F29AF2940001796B8E
:100CC0000D0EAE5C10E0090E795D0DE27951EA6A15
:100CD0006C0FE96E000EEA22AECFEFFF9EAAFED7A0
:100CE0000001792BEDD7080E795D0CE29E9AAB9846
:100CF000010E786F7951EA6A6C0FE96E000EEA22F4
:100D00000D0EEF6EA4A445D000019F51A01103E188
:100D1000010E9F6FA06B9D519E110DE04DEC0CF0EC
:100D2000D1C0E6FFD2C0E6FF9DEC0CF0E552E552E3
:100D300000019D6B9E6B6750DF6E010E66CFDBFF7F
:100D4000DF50286E276A010EDB5000012724256E34
:100D5000000E2820266E040E25C0DBFF050E26C0DF
:100D6000DBFF040EDBCFE6FF050EDBCFE6FFC80E90
:100D7000256E210E266E276A25C0E6FFE66E27C087
:100D8000E6FFFDEC11F0286E050EE15EF2AAF28A94
:100D9000A494080EE15C02E2E16AE552E16EE552DC
:100DA000E7CFD9FFE55200EE24F0070EE80403E395
:100DB000E5CFEDFFFBD700EE13F0140EE80403E3DC
:100DC000E5CFEDFFFBD7E5CFFAFFE5CFF4FFE5CFA9
:100DD000F3FFE5CFF5FFE5CFF7FFE5CFF6FFE5CF72
:100DE000EAFFE5CFE9FFE5CFDAFF1100D8CFE4FF56
:100DF000E0CFE4FFE46EDACFE4FFE2CFDAFFE9CF41
:100E0000E4FFEACFE4FFF6CFE4FFF7CFE4FFF5CF4E
:100E1000E4FFF3CFE4FFF4CFE4FFFACFE4FF00EE0A
:100E200000F0140EE80403E3EECFE4FFFBD700EE7E
:100E30001EF0070EE80403E3EECFE4FFFBD7E65213
:100E4000D9CFE6FFE1CFD9FF080EE126F2A484D086
:100E5000050ED66EFC0ED76E00019F51A01101E168
:100E60007AD06750DF6E010E66CFDBFFDF50176E62
:100E7000166A010EDB5000011624146E000E1720B6
:100E8000156E040E14C0DBFF050E15C0DBFFB6ACFB
:100E900002D0B69C19D0A3B4A394040EDBCFE6FF16
:100EA000050EDBCFE6FFC80E146E210E156E166A16
:100EB00014C0E6FFE66E16C0E6FFFDEC11F0176EFB
:100EC000050EE15E1750A384040EDB500001835D24
:100ED00000011C6E050EDB500001845900011D6EDF
:100EE0001CC008F0096EA0EC0FF007C018F008C095
:100EF00019F009C01AF00AC01BF007C0E6FF08C0CD
:100F0000E6FF09C0E6FF0AC0E6FFF6EC12F0E55284
:100F1000E552E552E55206C014F007C015F008C0CE
:100F200016F009C017F00C6A0D6A400E0E6E0F6EB7
:100F300006C007F015C008F016C009F017C00AF087
:100F4000D3EC0FF0010A07E14DEC0CF00001A00E0C
:100F5000836F0F0E846FF294080EE15C02E2E16A87
:100F6000E552E16EE552E7CFD9FFE55200EE24F0FD
:100F7000070EE80403E3E5CFEDFFFBD700EE13F027
:100F8000140EE80403E3E5CFEDFFFBD7E5CFFAFF4E
:100F9000E5CFF4FFE5CFF3FFE5CFF5FFE5CFF7FFB2
:100FA000E5CFF6FFE5CFEAFFE5CFE9FFE5CFDAFFD2
:100FB000E550E5CFE0FFE5CFD8FF1000C9EC0CF01D
:100FC0000001876B886BA00E836F0F0E846F806BA0
:100FD0009F6BA06BB96BBA6BBB6BBC6B856B866B85
:100FE000B56BB66BB76BB86BC16BC26BC36BC46BC5
:100FF0007D6B7E6B7F6B786B7C6B796B816B826BAF
:10100000800507E1C9EC0CF0CFC0E6FFD0C0E6FFD9
:1010100006D0010E806FCDC0E6FFCEC0E6FF9DEC8E
:101020000CF0E552E552D0EC0DF0F3CF9DF0F4CF8B
:101030009EF0320EE66E4DEC13F0E5528194320EC6
:10104000E66E4DEC13F0E552818400017805F1E184
:101050007A6BA76BA86BA56BA66BA36BA46BA16B3C
:10106000A26BA96BAA6BAB6BAC6B816B826B7A5179
:10107000EA6A6C0FE96E000EEA22EF500D0801E1FA
:101080003FD17A51EA6A6C0FE96E000EEA22EF5006
:10109000730809E07A51EA6A6C0FE96E000EEA22E1
:1010A000EF50530843E1A351A41140E1936B946BBB
:1010B0007A2B010EA36FA46B7A51EA6A6C0FE96E6A
:1010C000000EEA22EFCF1EF0300EE76E1E18E8AEDB
:1010D00002D0E73402D0E7501E5C18E37A51EA6A86
:1010E0006C0FE96E000EEA22EFCF1FF0390EE76EAB
:1010F0001F18E8AE02D01F3403D0E750D8801F5429
:1011000005E37A2B932B000E9423D6D77A07030E90
:10111000D8809355000E945501E2EBD0000ED88094
:101120009355000E945501E2E8D0E3D07A51EA6A73
:101130006C0FE96E000EEA22EF506D0809E07A515B
:10114000EA6A6C0FE96E000EEA22EF504D0807E1E3
:10115000A951AA1104E1010EA96FAA6BCED07A5150
:10116000EA6A6C0FE96E000EEA22EF50620809E0AD
:101170007A51EA6A6C0FE96E000EEA22EF504208DB
:1011800003E1AB51AC1115E07A51EA6A6C0FE96EDC
:10119000000EEA22EF50660809E07A51EA6A6C0F05
:1011A000E96E000EEA22EF50460807E1AB51AC11A0
:1011B00004E1010EAB6FAC6BA0D07A51EA6A6C0F00
:1011C000E96E000EEA22EF50680809E07A51EA6AF7
:1011D0006C0FE96E000EEA22EF50480807E1A751B4
:1011E000A81104E1010EA76FA86B87D07A51EA6AB3
:1011F0006C0FE96E000EEA22EF50760809E07A5192
:10120000EA6A6C0FE96E000EEA22EF5056081FE101
:10121000A551A6111CE1010EA51901E1A65102E09C
:10122000000E01D0010E7A2B7A51EA6A6C0FE96E3A
:10123000000EEA22EF50310860E07A51EA6A6C0F42
:10124000E96E000EEA22EF50300857E052D07A5192
:10125000EA6A6C0FE96E000EEA22EF50700809E0AE
:101260007A51EA6A6C0FE96E000EEA22EF505008DC
:1012700040E1A151A2113DE1976B986B7A2B010ED1
:10128000A16FA26B7A51EA6A6C0FE96E000EEA2236
:10129000EFCF1EF0300EE76E1E18E8AE02D0E73436
:1012A00002D0E7501E5C18E37A51EA6A6C0FE96ECF
:1012B000000EEA22EFCF1FF0390EE76E1F18E8AEDE
:1012C00002D01F3403D0E750D8801F5405E37A2B97
:1012D000972B000E9823D6D77A07040ED8809755FF
:1012E000000E985506E3000ED8809755000E9855CD
:1012F00004E3010E816F826B03D000017A2BB7D615
:10130000010E811919E1825117E17A6B79297A5D11
:101310000AE27A51EA6A6C0FE96E000EEA22200EA8
:10132000EF6E7A2BF3D7D5C0E6FFD6C0E6FF9DEC73
:101330000CF0E552E5525AD28151821101E056D2A9
:10134000D3C0E6FFD4C0E6FF9DEC0CF0E552E552B9
:1013500000017A6B916B926B956B966B79517A5D0C
:1013600001E336D27A51EA6A6C0FE96E000EEA2286
:10137000EFCF1EF0300EE76E1E18E8AE02D0E73455
:1013800002D0E7501E5C01E25DD17A51EA6A6C0F2F
:10139000E96E000EEA22EFCF1FF0390EE76E1F183C
:1013A000E8AE02D01F3403D0E750D8801F5401E2CA
:1013B00049D17D0501E0AFD07A51EA6A6C0FE96E40
:1013C000000EEA22EF50E66E600E9125E96E000EE7
:1013D0009221EA6EE552E750EF6E912B000E9223B8
:1013E0007D0501E02FD19351911901E02BD194514A
:1013F000921901E027D191C0E6FF92C0E6FF600E8E
:10140000E66E000EE66ED5EC0DF0E552E552E552C3
:10141000E552F3CF8FF0F4CF90F00001960ED88014
:10142000F354000EF45456E3180ED8808F55000E76
:10143000905550E28FC0B1F090C0B2F0B36BB46B76
:10144000550E0B6E030E0C6E0D6A0E6A8FC006F001
:1014500090C007F0B3C008F0B4C009F08BEC12F0F4
:1014600002C0B1F003C0B2F004C0B3F005C0B4F0E4
:101470000001400EAD6F4B0EAE6F4C0EAF6FB06BF8
:10148000AD0EE96E000EEA6E02C00BF003C00CF068
:1014900004C00DF005C00EF0EECF06F0EECF07F061
:1014A000EECF08F0EFCF09F029EC13F009C0EDFF03
:1014B00008C0EDFF07C0EDFF06C0EFFFCB50E66EA2
:1014C000E66AADC0E6FFAEC0E6FF9FEC0EF0E55267
:1014D000E55206D0D7C0E6FFD8C0E6FF9DEC0CF081
:1014E000E552E55200017B6B010E1F6A91251E6ECD
:1014F00092511F221E507B5D000E1F540AE27B5149
:10150000EA6A600FE96E000EEA22200EEF6E7B2B76
:10151000EBD77D6B97D07F0501E07AD07A51EA6AEC
:101520006C0FE96E000EEA22EF50E66E600E952514
:10153000E96E000E9621EA6EE552E750EF6E952BAC
:10154000000E96239751951901E07CD09851961979
:1015500001E078D095C0E6FF96C0E6FF600EE66E2B
:10156000000EE66ED5EC0DF0E552E552E552E5527F
:10157000F3CFC9F0F4CFCAF00001CB6BCC6BCAAF8C
:1015800002D0CB69CC69000EC95D080ECA59000EA5
:10159000CB59000ECC591BE2D880000EC955000E65
:1015A000CA55000ECB55000ECC5511E2CB50E66E5D
:1015B000E66AF50EE66EE66A9FEC0EF0E552E5523D
:1015C000E552E552C9C083F0CAC084F008D0E3C038
:1015D000E6FFE4C0E6FF9DEC0CF0E552E5520001A9
:1015E0007B6B010E1F6A95251E6E96511F221E50A1
:1015F0007B5D000E1F540AE2600E9525E96E000E19
:101600009621EA6E200EEF6E7B2BEBD77F6B1AD004
:101610007E0518E17A51EA6A6C0FE96E000EEA2243
:10162000EF50310803E1010E856F0AD07A51EA6A62
:101630006C0FE96E000EEA22EF50300802E1856B74
:10164000866B7E6B7A51EA6A6C0FE96E000EEA22B5
:10165000EF50680A01E1A2D0200A01E19FD02E0AD2
:101660005CE0200A5AE0240A32E0200A30E02F0A27
:1016700018E0200A16E03D0A11E0200A0FE0260AD1
:101680000AE0200A08E0250A03E0200A01E09DD0D4
:10169000010E7D6F9AD0010E7E6F97D0010E7F6F85
:1016A00094D080A00FD0CB50E66EE66AF50EE66EC1
:1016B000E66A9FEC0EF0E552E552E552E5524DEC3C
:1016C0000CF083D0D9C0E6FFDAC0E6FF62D08050CC
:1016D000020B18E18050010B15E0CBCFC5F0C66BB3
:1016E000C76BC86BCB50E66EE66AF50EE66EE66A2F
:1016F0009FEC0EF0E552E552E552E5524DEC0CF050
:10170000808225D08050020B05E18050010B02E160
:1017100080825BD080A259D038D08050020B2BE061
:101720008050010B28E0CBCFC5F0C66BC76BC86BF0
:10173000CB50E66EE66AF50EE66EE66A9FEC0EF0BA
:10174000E552E552E552E5524DEC0CF08092400E28
:10175000E66E420EE66EFDEC0BF0E552E552CB5024
:10176000E66EE66AC5C0E6FFC6C0E6FF9FEC0EF077
:10177000E552E55210D08050020B05E08050010B7D
:1017800002E1809222D080B220D0DBC0E6FFDCC034
:10179000E6FF9DEC0CF0E552E55217D0CB50E66E1B
:1017A000E66AF50EE66EE66A9FEC0EF0E552E5524B
:1017B000E552E552D0EC0DF0F3CF9DF0F4CF9EF062
:1017C0000001B56BB66BB76BB86B00017A2BC6D551
:1017D0007A6B79297A5D0AE27A51EA6A6C0FE96ECE
:1017E000000EEA22200EEF6E7A2BF3D70001786B01
:0A17F000AB88A384F28A19EF08F019
:0617FA00D9CFE6FFE1CFAC
:10180000D9FF080EE126DE6ADE6ADE6ADD6ADD5295
:10181000DD52900E086E010E096EFD0EDBCF0DF04D
:10182000FE0EDBCF0EF0B5EC0FF006C01EF007C0C9
:101830001FF0206A216AD9CFE9FFDACFEAFF06500C
:10184000EE5C0750EE582050EE582150EE581BE247
:10185000D950040FE96EDACFEAFF040EEECFDBFFBA
:10186000050EEECFDBFF060EEECFDBFF070EEECF51
:10187000DBFFD9CFE9FFDACFEAFFEE2A000EEE2236
:10188000EE22EE22C6D7080EE15C02E2E16AE552E2
:10189000E16EE552E7CFD9FF1200CB6ABD96BD9449
:1018A000BD90BD92500EE66EC30EE66EA6DFE55209
:1018B000E55280901200F50ECB6EBD86BD8480800F
:1018C0001200D9CFE6FFE1CFD9FF020EE126DE6A92
:1018D000DD6ADECF1EF0DDCF1FF0FB0EDBCF20F088
:1018E000FC0EDBCF21F01F502118E8AE02D02134CE
:1018F00004D020501E5C21501F5815E29EA8FED730
:10190000FD0EDBCF1EF0FE0EDBCF1FF0DE501E24DF
:10191000E96EDD501F20EA6EEF50AD6EDF2A010E3A
:10192000D8E3DB2AD6D7020EE15C02E2E16AE55297
:10193000E16EE552E7CFD9FF1200D9CFE6FFE1CF44
:10194000D9FFFD0EDBCFF6FFFE0EDBCFF7FF080061
:10195000F5500FE09EA8FED7FD0EDBCFF6FFDB2A89
:10196000FE0EDBCFF7FF01E3DB2A0800F550AD6E7A
:10197000E8D7E552E7CFD9FF1200AC8AAC98AC8427
:10198000AC9CAB8EAB88AB9CAA862A0EAF6E9D8AB0
:101990001200F30E936EFE0E926E9494B890B8926D
:1019A000B894B896B898D08EE8DFB00ED66EED0E2B
:1019B000D76EA584F194F28AA384A392D59AD59C7C
:1019C000D596D590D592D584D58EBD9ABD98040E66
:1019D000BE6E9494CA84CA92CA90A50EB66E646A0A
:1019E000080E656E3B0E606E4F0E636E87688868EA
:1019F000310EB76EF28EF28C1200D9CFE6FFE1CF36
:101A0000D9FF0A0EE126060EDB6A070EDB6AFC0E22
:101A1000DB504E0804E19EA8FED70A0E07D0FC0E4C
:101A2000DB50530804E19EA8FED7200EAD6EFD0EDC
:101A3000DBCF08F0FE0EDBCF09F0020E08C0DBFFA3
:101A4000030E09C0DBFFFD0EDBCF08F0FE0EDBCF7F
:101A500009F0040E08C0DBFF050E09C0DBFFD950FA
:101A6000020FE96EDACFEAFF000ED880EE54000EC6
:101A7000ED5418E2060EDB2A070E01E3DB2AD950EB
:101A8000020FE96EDACFEAFF0A0E0D6E0E6AEECF94
:101A900008F0EDCF09F064EC13F008C0EEFF09C0C8
:101AA000EDFFDDD7060EDBCF1EF0070EDBCF1FF0FC
:101AB0001E06000E1F5A080E1EC0DBFF090E1FC0B7
:101AC000DBFF080EDBCF1EF0090EDBCF1FF01F344B
:101AD00044E21E500008000E1F543FE2040EDBCF0C
:101AE0001EF0050EDBCF1FF00A0E0D6E0E6A1EC033
:101AF00008F01FC009F064EC13F004C01EF005C02C
:101B00001FF004C0DEFF05C0DDFF300EDE26000E34
:101B1000DD22080EDBCFE9FF090EDBCFEAFFF50E71
:101B2000E926000EEA22DFCFEFFFD950040FE96E5D
:101B3000DACFEAFF0A0E0D6E0E6AEECF08F0EDCF97
:101B400009F064EC13F008C0EEFF09C0EDFF080EC9
:101B5000DB06090EB6E2DB06B4D7040EDBCF1EF0BF
:101B6000050EDBCF1FF0300E1E240001F56F060EB0
:101B7000DBCFE6FF070EDBCFE6FFF50EE66E000ECD
:101B8000E66E9FDEE552E552E552E5520A0EE15C53
:101B900002E2E16AE552E16EE552E7CFD9FF1200B9
:101BA0008ADE010EF36EF46A1200D9CFE6FFE1CFB0
:101BB000D9FF080EE126020EDB6A030EDB6A010E76
:101BC000F36E040EF3CFDBFF050EDB6A060EDB6A55
:101BD000070EDB6AFB0EDBCF1EF0FC0EDBCF1FF027
:101BE0001F340AE21E500408000E1F5405E2100EB6
:101BF000F36E270EF46E99D0DE6ADD6ADECF1EF03A
:101C0000DDCF1FF0FB0EDBCF20F0FC0EDBCF21F091
:101C10002006000E215A20501E5C21501F5813E24E
:101C2000D950040FE96EDACFEAFF0A0EEC02F3CFC7
:101C3000EDFFEF02F3CFEEFFF450ED26DF2A010EA9
:101C4000DDE3DB2ADBD7DE6ADD6ADECF1EF0DDCF27
:101C50001FF0FB0EDBCF20F0FC0EDBCF21F020507D
:101C60001E5C21501F5857E2FD0EDBCF20F0FE0E08
:101C7000DBCF21F0DE502024E96EDD502120EA6E1A
:101C8000EF50D00F1E6E1F6A1EBE1F68020E1EC0D0
:101C9000DBFF030E1FC0DBFF040EDBCF1EF0050EC3
:101CA000DBCF1FF0D950020FE96EDACFEAFF1EC07A
:101CB0000DF01FC00EF0EECF08F0EDCF09F0B5EC3F
:101CC0000FF006C0EEFF07C0EDFF020EDBCF1EF0E7
:101CD000030EDBCF1FF0D950060FE96EDACFEAFF13
:101CE0001E50EE261F50ED22D950040FE96EDACFB8
:101CF000EAFF0A0E0D6E0E6AEECF08F0EDCF09F086
:101D000064EC13F008C0EEFF09C0EDFFDF2A010EFE
:101D10009CE3DB2A9AD7060EDBCF1EF0070EDBCF43
:101D20001FF01EC0F3FF1FC0F4FF080EE15C02E2CB
:101D3000E16AE552E16EE552E7CFD9FF1200D9CF53
:101D4000E6FFE1CFD9FF040EE12680A08080D950C4
:101D5000FB0FE96EFF0EDA20EA6EEE50ED1008E19F
:101D6000F50EF36EFB0EF3CFDBFFFC0EDB6AA3DD9B
:101D7000FB0EDBCFDEFFDBCFDDFFFD0EDBCF1EF08A
:101D8000FE0EDBCF1FF0FB0EDBCF20F0FC0EDBCF17
:101D900021F021501F18E8AE02D01F3404D01E508D
:101DA000205C1F5021584FE2DECF1EF0DDCF1FF028
:101DB000010EE76EFD0EDBCF20F0FE0EDBCF21F033
:101DC000E7502026000E212220501E5C21501F5873
:101DD00001E3ACD0D9CFE9FFDACFEAFF960ED88085
:101DE000EE54000EED5402E2050E21D0D9CFE9FFEA
:101DF000DACFEAFF320ED880EE54000EED540CE23A
:101E0000D9CFE9FFDACFEAFF960ED880EE54000E64
:101E1000ED5402E30A0E0BD0D9CFE9FFDACFEAFF87
:101E2000320ED880EE54000EED5406E3140EE66E2A
:101E3000E66AE3DCE552E552DF2A010E01E3DB2A24
:101E4000DF50CB6EB1D7FD0EDBCF1EF0FE0EDBCF29
:101E50001FF0FB0EDBCF20F0FC0EDBCF21F01F507C
:101E60002118E8AE02D0213404D020501E5C21504D
:101E70001F584BE2DECF1EF0DDCF1FF0FD0EDBCF93
:101E800020F0FE0EDBCF21F02006000E215A1E505E
:101E9000205C1F5021584AE2D9CFE9FFDACFEAFF90
:101EA000960ED880EE54000EED5402E2050E21D0BD
:101EB000D9CFE9FFDACFEAFF320ED880EE54000E18
:101EC000ED540CE2D9CFE9FFDACFEAFF960ED880C5
:101ED000EE54000EED5402E30A0E0BD0D9CFE9FF09
:101EE000DACFEAFF320ED880EE54000EED5406E34E
:101EF000140EE66EE66A81DCE552E552DF06010E5D
:101F000001E2DB06DF50CB6EB5D7FD0EDBCF1EF056
:101F1000FE0EDBCF1FF0FB0EDB501E1807E1FC0EA0
:101F2000DB501F1803E1FD0EDB50CB6E040EE15CAD
:101F300002E2E16AE552E16EE552E7CFD9FF120015
:101F4000019E08D0019E09AE05D0086C091EE86A02
:101F50000922018E09C003F008C002F0136A126A58
:101F60008E0E046E056A4DEF10F008C012F0085096
:101F70000D02F4CF07F0F3CF06F009500E02F4CFB4
:101F800009F0F3CF08F00D02F3500726F4500822B1
:101F9000E86A092212500E02F3500726F450082274
:101FA000E86A0922000CDCEC0FF001B6000C01B06D
:101FB000000C01A4000C010C016A89EC10F0A1ECEA
:101FC00010F001B6120001AE08D001A004D001A8A3
:101FD00002D001801200019012000F500A5C0BE148
:101FE0000E50095C08E10D50085C05E10C50075CDF
:101FF00002E101801200D8A002D0018E10D00A5058
:102000000FC00AF00F6E09500EC009F00E6E085096
:102010000DC008F00D6E07500CC007F00C6E0F508D
:102020000A5C10E0FF0F09E0019001B403D001AE9B
:102030000184120001AE019412000F2AD8900E32D2
:102040000D320C320C50075E0D50085A0E50095AD2
:1020500009BEEAD7D8900736083609360A2EF8D7CF
:10206000C8D77F0E0A6EFF0E096E086E076E12004B
:102070007F0E01BEFF0E0A6E02D07F0E0A6E800E2A
:10208000096E086A076AF3D701AE04D0800E0A6EA3
:10209000096AF7D70A6A096AF4D7035002101310C5
:1020A0001210F8E005BEF0D703BE0CD004500510A6
:1020B000EBE0D89012361336023603360406D8A069
:1020C0000506F2D70550D4E10428D2E012AE11D0B3
:1020D0007F0E121402E113A00CD0132AE86A022228
:1020E000032207E3D880033202321332042A042881
:1020F000BFE00450C9E013C007F002C008F0033489
:10210000096E04300A6E09320A9E01BE0A8E37EF4C
:1021100010F009360A3602E30184017E06E10180EF
:102120000A6A096A086A076A12000A2803E0D88066
:1021300009321200D890093202E1018212000186B0
:1021400012000E360F3602E3018C017E06E1018893
:102150000F6A0E6A0D6A0C6A12000F2803E0D8801D
:102160000E321200D8900E32EAE1018A120009C044
:1021700013F008C012F008500D02F4CF07F0F3CFAF
:1021800006F009500E02F4CF09F0F3CF08F00D026B
:10219000F3500726F4500822E86A092212500E0272
:1021A000F3500726F4500822E86A09220EAEDDEF4C
:1021B00010F01250085E1350095A13AE000C0D5067
:0821C000085E0E50095A000CE4
:0821C80025750A000A200D2014
:1021D0004D4355206F766572636F756E746564202C
:1021E0000A200D000A200D204D435520736B6970A5
:1021F0007065642070756C736573200A200D000A89
:10220000200D20496E76616C696420726571756578
:102210007374656420706F736974696F6E200A202F
:102220000D000A200D20496E636F72726563742081
:10223000706F736974696F6E732C207472616E7342
:102240006D697373696F6E2061626F72746564206B
:10225000200A200D000A200D204D6F746F72206936
:1022600073206E6F7420726573706F6E64696E6731
:10227000200A200D000A200D204D657373616765EB
:10228000206578656375746564200A200D000A2056
:102290000D204C6173657220726F746174696E6792
:1022A00020696E2074686174206469726563746962
:1022B0006F6E200A200D000A200D204C617365729C
:1022C00020616C72656164792073746F70706564ED
:1022D000200A200D000A200D20496E76616C696489
:1022E00020726571756573746564207370656564CB
:1022F000200A200D000A200D204D736720636F72A5
:1023000072757074200A200D000A200D204D73672D
:10231000207265636569766564200A200D000A20D5
:102320000D20486F6D6520200A200D000A200D2029
:1023300050494320726573657420284D434C5229DF
:10234000200A200D000A200D2050494320696E69A3
:0C2350007469616C697A6174696F6E00D9
:04235C001E0EF66EED
:10236000000EF76E000EF86E00010900F550EE6FDA
:102370000900F550EF6F03E1EE6701D03DD0090091
:10238000F550E96F0900F550EA6F0900F550EB6F61
:1023900009000900F550E96E0900F550EA6E0900E0
:1023A00009000900F550EC6F0900F550ED6F0900C8
:1023B0000900F6CFF0F0F7CFF1F0F8CFF2F0E9C076
:1023C000F6FFEAC0F7FFEBC0F8FF0001EC5302E1B3
:1023D000ED5307E00900F550EE6EEC07F8E2ED076B
:1023E000F9D7F0C0F6FFF1C0F7FFF2C0F8FF000127
:0A23F000EE07000EEF5BBFD71200EE
:0623FA00D9CFE6FFDACFA7
:10240000E6FFE1CFD9FFE2CFDAFFE652E652E6522D
:10241000E652D950FB0F1E6EFF0EDA201F6E1EC053
:10242000DEFFDD6EDECFE6FFDDCFE6FFFB0EDBCFAE
:10243000E6FFFC0EDBCFE6FFFD0EDBCFE6FFF3C0D1
:10244000E6FFF4C0E6FF32EC00F01E6E070EE15C22
:1024500002E2E16AE552E16E1E50020EF3CFDBFFAD
:10246000030EF4CFDBFF020EDBCF1EF0030EDBCF3B
:102470001FF01EC0F3FF1FC0F4FF040EE15C02E278
:10248000E16AE552E16EE552E5CFDAFFE7CFD9FF29
:02249000120038
:0E249200D9CFE6FFDACFE6FFE1CFD9FFE2CFE8
:1024A000DAFFFB0EDBCF1EF0FC0EDBCF1FF00001CE
:1024B000800E1F141AE1FB0EDBCFE9FFFC0EDBCF11
:1024C000EAFFEECFF3FFEDCFF4FFEE2A000EEF228E
:1024D000F3CFE9FFF4CFEAFFFD0EDBCFEFFFEF50C4
:1024E0001F6AF36E1FC0F4FF10D0FB0EDB50FE0816
:1024F00006E1FD0EDBCFE6FFAAEC13F005D0FD0EE2
:10250000DBCFE6FF03EC00F0E552E552E5CFDAFF62
:06251000E7CFD9FF120025
:0A25160006500B02F3CF02F0F4CFE1
:1025200003F00C02F3500326000EF420046E065054
:102530000D02F3500426000EF420056E06500E0224
:10254000F350052607500B02F3500326F4500422E3
:10255000000E052207500C02F3500426F450052209
:1025600007500D02F350052608500B02F3500426C5
:10257000F450052208500C02F350052609500B02B6
:06258000F35005261200D5
:0A258600FE0EE3CFE9FFFF0EE3CFE6
:10259000EAFFF36AF46AEE5203E0F34AF42AFBD747
:1025A0001200FF0EE3CFF8FFE552FF0EE3CFF7FF77
:1025B000E552FF0EE3CFF6FFE552E66AE66AE66A09
:1025C0000900F55209E0FD0EE32A05E1FE0EE32ABB
:1025D00002E1FF0EE32AF4D7FD0EE3CF07F0FE0E73
:0C25E000E3CF08F0FF0EE3CF09F012007B
:0425EC00D9CFE6FF5E
:1025F000DACFE6FFE1CFD9FFE2CFDAFFE652E652CB
:10260000D950FD0F1E6EFF0EDA201EC0DEFFDD6EFC
:10261000DECFE9FFDDCFEAFFEF9EFA0EDBCF1EF043
:10262000FB0EDBCF1FF0FC0EDBCF20F0FD0EDBCF6F
:1026300021F01EC006F01FC007F020C008F021C026
:1026400009F0E552E552E552E5CFDAFFE7CFD9FFD1
:02265000120076
:0E265200056A046A036A026A200EE76ED890D9
:10266000063607360836093602360336043605368E
:102670000B50025C0C5003580D5004580E50055876
:1026800009E30B50025E0C50035A0D50045A0E50D1
:0A269000055A062AE72EE4D71200CF
:06269A00FF0EE3502A6E62
:1026A000EF0E01D0F30EE76EE72E54EF13F00C0E91
:1026B000296EE76AE72E5AEF13F0292E59EF13F02F
:0826C0002A2E52EF13F0120064
:0826C800056A046A100EE76EBA
:1026D000D89008360936043605360D50045C0E5085
:1026E000055805E30D50045E0E50055A082AE72EE2
:0426F000F0D712000D
:0C26F400F36AF46AFF0EE124E96EFF0EA9
:10270000E220EA6EED6607D02F0EEF6404D03A0E99
:08271000EF6001D0F32A120072
:08271800000EF36E00EE00F06C
:10272000030E01D81200EA6002D0EE6AFCD7F35023
:08273000E9601200EE6AFCD71B
:0827380012EE00F022EE00F0A9
:10274000F86A019CAEEC11F007EC00F0DEEC07F04B
:04275000FBD71200A1
:0C275400FF0EE350ACBA04D0AF6AAB8EAD
:10276000AC8A949CACA2FED7AD6EF36EF46A1200F4
:1027700030313233343536373839616263646566F7
:012780000058
:0F27810045232C231E230923F522D522B7228EB0
:0D27900022752255222222FF21E421CC21B6
:020000040030CA
:0100010002FC
:010003003EBE
:010004001CDF
:010006008079
:00000001FF
