:020000040000FA
:06000000B5EF07F012004D
:020006000000F8
:060008000FEF00F01200F2
:02000E00C250DE
:08001000040B01E0010E1200D7
:060018007CEF00F0120075
:02001E00DACF37
:10002000E4FFE2CFDAFFE9CFE4FFEACFE4FFF6CF67
:10003000E4FFF7CFE4FFF5CFE4FFF3CFE4FFF4CF25
:10004000E4FFFACFE4FF00EE00F0140EE80403E34F
:10005000EECFE4FFFBD700EE14F00E0EE80403E34E
:10006000EECFE4FFFBD7E652F250200B21E0F25036
:10007000040B1EE0F294F29A0001902B000E9123E3
:100080007C51901904E17D51911901E180947A51DC
:10009000901906E17B51911903E18084906B916B7B
:1000A000FA0EE66EE66A26EC07F0E552E552F28AB1
:1000B000E55200EE21F00E0EE80403E3E5CFEDFF7C
:1000C000FBD700EE13F0140EE80403E3E5CFEDFFD9
:1000D000FBD7E5CFFAFFE5CFF4FFE5CFF3FFE5CFA0
:1000E000F5FFE5CFF7FFE5CFF6FFE5CFEAFFE5CF78
:1000F000E9FFE5CFDAFF1100DACFE4FFE652F25074
:10010000100B0EE0F250020B0BE0F298F292F17C31
:1001100000016C5102E0000E01D0010E6C6FF288FC
:10012000E552E5CFDAFF110051D9D59E140EE66EE7
:10013000E66A020EE66EE66AE66AE66A04EC05F036
:10014000146E060EE15E1450C580C5B0FED7E66899
:1001500039EC06F0E552C580C5B0FED7C584C5B4FC
:10016000FED7140EE66EE66AE66EE66AE66AE66AB0
:1001700004EC05F0146E060EE15E145000016251AD
:10018000605D1C6E615163551D6E1CC008F0096EE8
:10019000B2EC02F007C018F008C019F009C01AF05C
:1001A0000AC01BF007C0E6FF08C0E6FF09C0E6FF73
:1001B0000AC0E6FFAAEC06F0E552E552E552E55228
:1001C00006C014F007C015F008C016F009C017F0FB
:1001D00064C008F065C009F0B2EC02F007C01EF080
:1001E00008C01FF009C020F00AC021F007C00CF0C1
:1001F00008C00DF009C00EF00AC00FF014C007F0DF
:1002000015C008F016C009F017C00AF020EC04F081
:10021000010A52E160C008F061C009F0B2EC02F0DE
:1002200007C018F008C019F009C01AF00AC01BF086
:1002300007C00CF008C00DF009C00EF00AC00FF0A6
:1002400080C007F081C008F082C009F083C00AF0C6
:100250005EEC03F007C014F008C015F009C016F0FA
:100260000AC017F07EC008F07FC009F0B4EC02F0BD
:1002700007C01CF008C01DF009C01EF00AC01FF026
:1002800007C00CF008C00DF009C00EF00AC00FF056
:1002900014C007F015C008F016C009F017C00AF026
:1002A000C8EC02F0F1EC03F008C07CF009C07DF06E
:1002B00060C062F061C063F06D0EE66E000EE66E27
:1002C000590EE66E04D8E552E552E55257D7D9CF1C
:1002D000E6FFE1CFD9FF100EE126060EDB6A050E20
:1002E000DB6A040EDB6A090EDB6A080EDB6A0D0EA0
:1002F000DB6A0C0EDB6A0F0EDB6A0E0EDB6A580E31
:10030000F36E040EF3CFDBFF5C0EF36E050EF3CF3E
:10031000DBFF060EDB6AC580C5B0FED7D950040FDF
:10032000E66E000EDA20E66EFEEC05F0E552E552D0
:10033000C582C5B2FED7590EE66E39EC06F0E5521D
:10034000E76E020EE7CFDBFFC3EC07F0E76E040EAB
:10035000E7CFDBFFC59AC588C5B8FED7C3EC07F069
:10036000E76E050EE7CFDBFFC58AC588C5A803D0B9
:10037000FDD7C5B8FED7C584C5B4FED7C580C5B006
:10038000FED7580EF36E080EF3CFDBFFB00EF36E00
:10039000090EF3CFDBFF0A0EDB680B0EDB6AD950C8
:1003A000080FE66E000EDA20E66EFEEC05F0E55270
:1003B000E552C584C5B4FED7100EE15C02E2E16AE5
:1003C000E552E16EE552E7CFD9FF12000B0E926EB7
:1003D000010E936E9468F184C50EE66E42EC07F050
:1003E000E552FA0EE66EE66A26EC07F0E552E552B3
:1003F000D59E070EE66EF40EE66E02EC07F0E552AF
:10040000E552F190E668DDEC06F0E552E66A080E8A
:10041000E66E5EEC07F0E552E552090EC86E00018B
:10042000950E886FBF0E896F560E8A6F340E8B6FD4
:10043000950E8C6FBF0E8D6F560E8E6F370E8F6FB1
:10044000CB0E7A6F7B6B0A0E846F856B140E866FF2
:10045000876B806B816BA00E826F3C0E836F84C0B4
:100460007EF085C07FF084C07CF085C07DF01E0EDC
:10047000646F656B8192819A81882C0E6D6F8C0EF2
:100480006F6F9C0E716F686B696B6A6B410E6B6F5F
:10049000450E786F906B916B6C6B8094D08EF28E62
:1004A000F28C1200D9CFE6FFE1CFD9FF0E0EE12684
:1004B0008188400EDF6E010EDB68A10EF36E020E26
:1004C000F3CFDBFF030EDB68200EF36E040EF3CFD9
:1004D000DBFF050EDB6A300EF36E060EF3CFDBFF9B
:1004E000810EF36E070EF3CFDBFF800EF36E080E66
:1004F000F3CFDBFF090EDB6A900EF36E0A0EF3CF2B
:10050000DBFF0B0EDB6A0C0EDB6AC580C5B0FED7C5
:10051000FE0EDBCFE6FF39EC06F0E552D9CFE6FF61
:10052000DACFE6FFFEEC05F0E552E552C584C5B42E
:10053000FED7140EE66EE66A0A0EE66EE66AE66A14
:10054000E66A04EC05F0146E060EE15E1450819824
:100550000E0EE15C02E2E16AE552E16EE552E7CFA0
:04056000D9FF1200AD
:0C056400019E08D0019E09AE05D0086C75
:10057000091EE86A0922018E09C003F008C002F0D2
:10058000136A126A8E0E046E056A9AEF04F00F7EEB
:10059000016AD6EC04F0EEEC04F001B67EEF04F054
:1005A00001A20AD001AA03D001BE7EEF04F001A48B
:1005B0008AEF04F087EF04F001AA05D001AC8AEFBE
:1005C00004F087EF04F001A00AD001A808D001BE12
:1005D00004D001A402D093EF04F097EF04F0126A64
:1005E000056A0F500A5C116E10E307C013F008C0D3
:1005F00002F009C003F00AC010F00CC007F00DC0F3
:1006000008F00EC009F0013A09D00CC013F00DC07B
:1006100002F00EC003F00FC010F0116C019E01BC7F
:10062000018E10C004F001B0C6EF04F01A0E116084
:10063000C6EF04F0046A0A6A01A408D0076C081E19
:10064000091E0A1EE86A082209220A2201AC08D003
:10065000136C021E031E041EE86A022203220422F7
:10066000066A115207E00A340932083207320632AC
:10067000112EF9D7075013260850022209500322E1
:100680000A50042206C012F0019E04AE0BD0126C78
:10069000131E021E031E041EE86A132202220322F6
:1006A0000422018E04A006D0D88003320232133215
:1006B0001232102A10C004F09AEF04F0016AD6EC4E
:1006C00004F0EEEC04F001B67EEF04F001A205D0D8
:1006D00001B87EEF04F085EF04F001AA05D001B067
:1006E0007EEF04F085EF04F001B002D001A802D043
:1006F00091EF04F0056A0F500A24046EE86A05229F
:100700007E0E045EE86A055A126A136A026A036A78
:100710000E500902F4CF03F0F3CF02F00D5009029E
:10072000F3501326F4500222000E03220E5008024A
:10073000F3501326F4500222000E03220C5009023B
:10074000F3501226F4501322000E022203220D5001
:100750000802F3501226F4501322000E0222032244
:100760000E500702F3501226F4501322000E0222FC
:1007700003220C500802F4501226000E132202220B
:1007800003220D500702F4501226000E13220222FB
:1007900003229AEF04F0006A0EAED4EF03F00D6C62
:1007A0000E1EE86A0E22001E09AEDCEF03F0086C94
:1007B000091EE86A0922001E79EC07F009BEECEF79
:1007C00003F000AE000C086C091EE86A0922046CF4
:1007D000051EE86A0522000C00BEE3EF03F0018865
:1007E000FF0C016AD6EC04F001B6FBEF03F001A2A6
:1007F0000ED001B405D07F0E096EFF0E086E1FD01B
:10080000800E096E086A1BD0096A086A18D001B008
:10081000FBD78F0E0A60EDD77E0E0A64F5D78E0ED9
:100820000A5C05E0D890093208320A2AF8D701A4F8
:1008300006D0086C091EE86A092209AEE5D7120045
:1008400029EC04F001B6000C01B0000C01B4000C5E
:10085000010C016AD6EC04F0EEEC04F001B61200D3
:1008600001AE08D001A004D001A802D0018012007E
:10087000019012000F500A5C0BE10E50095C08E178
:100880000D50085C05E10C50075C02E1018012008C
:10089000D8A002D0018E10D00A500FC00AF00F6EFF
:1008A00009500EC009F00E6E08500DC008F00D6E14
:1008B00007500CC007F00C6E0F500A5C10E0FF0FE1
:1008C00009E0019001B403D001AE0184120001AE31
:1008D000019412000F2AD8900E320D320C320C50B7
:1008E000075E0D50085A0E50095A09BEEAD7D89033
:1008F0000736083609360A2EF8D7C8D77F0E0A6E93
:10090000FF0E096E086E076E12007F0E01BEFF0E0D
:100910000A6E02D07F0E0A6E800E096E086A076AA0
:10092000F3D701AE04D0800E0A6E096AF7D70A6ABF
:10093000096AF4D70350021013101210F8E005BE34
:10094000F0D703BE0CD004500510EBE0D89012365F
:100950001336023603360406D8A00506F2D7055032
:10096000D4E10428D2E012AE11D07F0E121402E1BD
:1009700013A00CD0132AE86A0222032207E3D880CE
:10098000033202321332042A0428BFE00450C9E0C3
:1009900013C007F002C008F00334096E04300A6E79
:1009A00009320A9E01BE0A8E84EF04F009360A3627
:1009B00002E30184017E06E101800A6A096A086A8D
:1009C000076A12000A2803E0D88009321200D89082
:1009D000093202E101821200018612000E360F3642
:1009E00002E3018C017E06E101880F6A0E6A0D6A3E
:1009F0000C6A12000F2803E0D8800E321200D89043
:080A00000E32EAE1018A120046
:080A0800D9CFE6FFE1CFD9FFD1
:100A1000040EE126F90EDBCF14F0FA0EDBCF15F051
:100A2000040E0D6E0E6A14C008F015C009F0CBEC70
:100A300003F008C014F009C015F0166A176A15AE65
:100A400002D01668176814C006F015C007F016C06B
:100A500008F017C009F0FB0EDBCF0BF0FC0EDBCF6C
:100A60000CF0FD0EDBCF0DF0FE0EDBCF0EF072ECC6
:100A700006F002C0DEFF03C0DEFF04C0DEFF05C0DB
:100A8000DDFFDD52DD52D9CFE9FFDACFEAFFEECF4D
:100A900014F0EECF15F0EECF16F0EFCF17F01450A4
:100AA0001510161017100AE0D9CFE9FFDACFEAFFC8
:100AB000EE06000EEE5AEE5AEE5AE5D7040EE15C51
:100AC00002E2E16AE552E16EE552E7CFD9FF12009A
:100AD000D9CFE6FFE1CFD9FFFE0EDBCFE6FF8FECEB
:100AE00007F0E552E0EC07F007EC00F00009FCE14C
:100AF000D0EC07F0E552E7CFD9FF1200D9CFE6FFDF
:100B0000E1CFD9FFFB0EDBCFE6FFFC0EDBCFE6FF2C
:100B1000FD0EDBCF14F0FE0EDBCF15F0E80E150254
:100B2000F3CF15F0030E1402F3501526E80E14024D
:100B3000F3CF14F0F4501526166A176AF3CFE6FFC8
:100B400015C0E6FF16C0E6FF17C0E6FF5DDF186EB2
:0E0B5000060EE15E1850E552E7CFD9FF120005
:020B5E00060E81
:100B6000F66E000EF76E000EF86E00010900F550EB
:100B7000976F0900F550986F03E1976701D03DD05A
:100B80000900F550926F0900F550936F0900F55078
:100B9000946F09000900F550E96E0900F550EA6EFE
:100BA000090009000900F550956F0900F550966F8E
:100BB00009000900F6CF99F0F7CF9AF0F8CF9BF033
:100BC00092C0F6FF93C0F7FF94C0F8FF0001955361
:100BD00002E1965307E00900F550EE6E9507F8E242
:100BE0009607F9D799C0F6FF9AC0F7FF9BC0F8FFA8
:0C0BF00000019707000E985BBFD71200B1
:040BFC00D9CFE6FF68
:100C0000DACFE6FFE1CFD9FFE2CFDAFFE65229D80B
:100C100020E0C6A60AD025D8E66E39EC06F0E552EB
:100C2000DF6EDF5010E0DF5015D09E961AD8C96EE7
:100C3000C6889EA6FED7C650100B05E0C750010B14
:100C400002E1FE0E07D0FC0EDB2AFD0EE0E3DB2AFC
:100C5000DED7000EE552E552E5CFDAFFE7CFD9FF48
:100C60001200FC0EDBCFE9FFFD0EDBCFEAFFEF50F9
:020C7000120070
:0E0C7200D9CFE6FFDACFE6FFE1CFD9FFE2CF20
:100C8000DAFFFD0EDB50C96EC6AE02D0FF0E24D0D7
:100C90000F0EC61408080FE00F0EC6140B080BE069
:100CA000C6889EA6FED7C750040B03E1C750010BB0
:100CB00010E0000E11D00F0EC614080804E00F0E4D
:100CC000C6140B0809E1C7B0FED7D9EC07F0C5ACD4
:100CD00002D0FE0E01D0000EE552E5CFDAFFE7CFDD
:040CE000D9FF120026
:0C0CE40006500B02F3CF02F0F4CF03F037
:100CF0000C02F3500326000EF420046E06500D0281
:100D0000F3500426000EF420056E06500E02F35038
:100D1000052607500B02F3500326F4500422000E60
:100D2000052207500C02F3500426F4500522075008
:100D30000D02F350052608500B02F3500426F45020
:100D4000052208500C02F350052609500B02F350FF
:040D50000526120062
:0C0D5400D9CFE6FFDACFE6FFE1CFD9FFF0
:100D6000E2CFDAFFE652E652D950FD0F146EFF0EC5
:100D7000DA2014C0DEFFDD6EDECFE9FFDDCFEAFF53
:100D8000EF9EFA0EDBCF14F0FB0EDBCF15F0FC0E5E
:100D9000DBCF16F0FD0EDBCF17F014C006F015C048
:100DA00007F016C008F017C009F0E552E552E55209
:0A0DB000E5CFDAFFE7CFD9FF12000C
:060DBA00D9CFE6FFDACFFD
:100DC000E6FFE1CFD9FFE2CFDAFFF292FD0EDBA220
:100DD00002D0F18C01D0F19CDBA002D0F18E01D0C9
:100DE000F19E9380DBAC02D0F18001D0F190DBAEBC
:100DF00002D0F28801D0F298E552E5CFDAFFE7CFD2
:040E0000D9FF120004
:0C0E0400D9CFE6FFDACFE6FFE1CFD9FF3F
:100E1000E2CFDAFFC26AFD0EDB50C16EFC0EDB5082
:100E2000380B146EFD0EDB50040DF350C00B141084
:100E3000C26EFC0EDBAE03D09E9C9D8CF28CC280F9
:0C0E4000E552E5CFDAFFE7CFD9FF120042
:040E4C00D9CFE6FF15
:100E5000DACFE6FFE1CFD9FFE2CFDAFFE652E65282
:100E6000FC0EDBCFDEFFDBCFDDFF010EDB50D76EEC
:100E7000DF50D66EE552E552E552E5CFDAFFE7CF17
:040E8000D9FF120084
:0C0E8400D9CFE6FFDACFE6FFE1CFD9FFBF
:100E9000E2CFDAFFFD0EDB507F0BD56ED76AD66A44
:100EA000F294FD0EDBAE02D0F28A01D0F29AD58E1A
:0C0EB000E552E5CFDAFFE7CFD9FF1200D2
:040EBC00D9CFE6FFA5
:100EC000DACFE6FFE1CFD9FFE2CFDAFF3F0EC71658
:100ED000C66AC56AFD0EDB50C612FC0EDB50C71297
:100EE00094869488C68AE552E5CFDAFFE7CFD9FF2A
:020EF0001200EE
:0E0EF200056A046A100EE76ED89008360936BD
:100F0000043605360D50045C0E50055805E30D50AF
:0E0F1000045E0E50055A082AE72EF0D7120094
:020F1E00D9CF29
:100F2000E6FFDACFE6FFE1CFD9FFE2CFDAFFC70E67
:100F3000C214146EFD0EDB50380B1410C26EE55255
:0A0F4000E5CFDAFFE7CFD9FF12007A
:060F4A00000EF36E00EE44
:100F500000F0060E01D81200EA6002D0EE6AFCD75B
:0A0F6000F350E9601200EE6AFCD7BE
:060F6A0015EE00F025EE7B
:100F700000F0F86A019CAFEC05F0E2EC07F094ECAD
:060F800000F0FBD7120097
:0A0F86000F0EC614080804E00F0E59
:100F9000C6140B0801E1C586C7A0FED7C9501200D0
:100FA000C450176E166AC3501610F36E17C0F4FFC4
:020FB00012002D
:0E0FB2001F0EC514FDE1C750040BFAE112003A
:040FC000C2841200D5
:020FC400120019
:020000040030CA
:0100010022DC
:010002000AF3
:010003000EEE
:010006008079
:00000001FF
